:1000000000000220D53C0000FD3C00000D0F000068
:10001000013D0000033D0000053D00000000000020
:10002000000000000000000000000000073D00008C
:10003000093D0000000000000B3D00000D3D0000E8
:100040002D2100000F3D0000C9230000412D0000BC
:10005000512D00000F3D00002D220000FD28000062
:100060006D2B00007D2B00000F3D00000F3D0000B8
:100070000F3D00000F3D00000F3D00000F3D000050
:100080000F3D0000E10900000F3D00000F3D0000A2
:100090007D0A00000F3D00000F3D00000F3D0000F5
:1000A0000F3D00000F3D00000F3D00000F3D000020
:1000B000C52800000F3D0000000000000000000007
:1000C0000F3D0000D52800000F3D0000BD2A0000B4
:1000D0000F3D00000F3D00000F3D00000F3D0000F0
:1000E0000F3D0000000000000000000000000000C4
:1000F000000000000F3D0000000000000F3D000068
:1001000000000000000000000000000000000000EF
:1001100000000000000000000000000000000000DF
:1001200000000000000000000000000000000000CF
:1001300000000000000000000000000000000000BF
:1001400000000000000000000000000000000000AF
:10015000000000000000000000000000000000009F
:10016000000000000000000000000000000000008F
:10017000000000000000000000000000000000007F
:10018000000000000000000000000000000000006F
:10019000000000000000000000000000000000005F
:1001A000000000000000000000000000000000004F
:1001B000000000000000000000000000000000003F
:1001C000000000000000000000000000000000002F
:1001D000000000000000000000000000000000001F
:1001E000000000000000000000000000000000000F
:1001F00000000000000000000000000000000000FF
:100200000348044B834202D0034B03B118477047A5
:10021000FC060020FC060020000000000548064BFC
:100220001B1AD90F01EBA301491002D0034B03B1F4
:1002300018477047FC060020FC0600200000000064
:1002400010B5064C237843B9FFF7DAFF044B13B11E
:100250000448AFF300800123237010BDFC0600208A
:100260000000000098BC000008B5044B1BB1044915
:100270000448AFF30080BDE80840CFE7000000006D
:100280000007002098BC0000A3F5803A704700BF2B
:10029000154B002B08BF114B9D46FFF7F5FF0021C2
:1002A0008B460F461148124A121A03F0B5FD0C4B4B
:1002B000002B00D098470B4B002B00D09847002014
:1002C000002104000D000B4803F0E2FF03F098FE4C
:1002D0002000290000F0DCF803F0CCFF000008004B
:1002E000000000000000000000000220FC060020CA
:1002F00008130020E54200001FB5144A1068516839
:1003000001AB03C39068186001A90022104802F0F5
:100310006BF9104B40F2CA22C3F808250E4B40F28D
:1003200065121A8000F002FD0C4A0D48002100F011
:1003300045FD0C4B0C4A1A600C4A002313600C4A12
:1003400013600C4A137005B05DF804FBBCB60000E6
:1003500024B5000000C001402407002095030000E0
:10036000B8B60000000000204CAE000020070020BE
:100370001C0700201807002008B50448002102F0DF
:100380007DFABDE80840024800F070BD24B50000C9
:100390002807002038B501212A4802F06FFA2A48C0
:1003A0002A4B01681B68994203D3BDE83840FFF728
:1003B000E3BF274B1B685A5CA2F16103192B1AD8C3
:1003C000203AD2B2234C0B2313FB0243224A234C84
:1003D000134422789D7A954219D801310160002397
:1003E0004FF4B4712370BDE838401D48002201EB82
:1003F000411100F0F5BCA2F14103192BE2D9A2F1A1
:100400003003092B1BD80B236FF0F104DCE71344F6
:100410005A7852B913490B480223012202F0BCF961
:10042000782123780133DBB2DCE7012AF8D10D49CA
:100430000448022302F0B0F94FF4B471F1E700234D
:100440009B7AFFDE24B500001C0700202007002057
:100450000000002035FDFFFF2CB50000180700202C
:100460002807002004000020054B064A1860064BB0
:10047000196000231360054A1370FFF78BBF00BF9C
:10048000000000201C070020200700201807002083
:1004900008B50A480A4C0B4E03F010FFFFF72CFF7B
:1004A00044F0010403213046FFF7DEFF42F21075ED
:1004B0004FF47A40A047013DFAD1F3E780A4000051
:1004C000D0B6000090A4000010B50368292B0446A4
:1004D00004D9074940F2CD1000F032FD23681F2BEC
:1004E00083BF03F01F03236002484FF0A04010BDFC
:1004F00094A400000003005007B5019001A8FFF785
:10050000E3FF019A01239340C0F80C3503B05DF876
:1005100004FB07B5019001A8FFF7D6FF019A01235C
:100520009340C0F8083503B05DF804FB38B5054DBD
:10053000044645F001054FF47A40A847013CFAD142
:1005400038BD00BF40B700002DE9F3413D4F3E4E9E
:100550000524022517F8013B019301A8FFF7B4FF1A
:10056000019B03F5E07340F8235001A816F8013B06
:100570000193FFF7A9FF019B03F5E073013C40F8ED
:100580002350E7D1152501A80195FFF79DFF019B99
:1005900003F5E07340F2032640F82360132401A81A
:1005A0000194FFF791FF019B03F5E07340F20318FC
:1005B00040F823601C2601A80196FFF785FF019BE8
:1005C00003F5E0731E2740F8238001A80197FFF789
:1005D0007BFF019B03F5E07340F823802846FFF77B
:1005E00098FF2046FFF795FF3046FFF785FF384616
:1005F000FFF782FF1C20FFF77FFF1E20FFF77CFF25
:100600004FF4FA70FFF792FF1C20FFF782FF1E20C5
:10061000FFF77FFF3220FFF789FF1C20FFF76CFFF9
:100620001E20FFF769FF4FF4FA70FFF77FFF1C20D1
:10063000FFF76FFF1E20FFF76CFFFA20FFF776FF32
:10064000D8E700BF4BB7000046B7000073B50646B9
:100650000D46144672B601F02FFB01F06FF9002829
:10066000FBD1124803F02AFE44F201039E420AD055
:1006700044F202039E4214D1228861680C4803F0C0
:100680001DFEFFF761FFA668304601F045FD2368B7
:1006900001950093024663680648314603F00EFE5A
:1006A000EFE72946044803F009FEEAE7D7A4000073
:1006B000F0A400000BA5000035A500002DE9F743CC
:1006C000054601F0F9FA01F039F90028FBD12A4B6F
:1006D0002A4C9E6A2A4BE41AE408240444F00104DC
:1006E000002D44D0AA692749204601F097FAEB680B
:1006F0000193AB680093D5E900232349204601F01C
:10070000A2FAEB690093D5E904232049204601F0C1
:100710008EFA194BDB6A990703D51D49204601F073
:1007200079FADFF87C80DFF87C900025012707FA52
:1007300005F3334206D058F825201AB14946204621
:1007400001F06CFA01351A2DF1D1320605D50A4BAC
:1007500010495A6B204601F061FA330405D5064B67
:100760000D499A6B204601F059FAFFF7EDFE0B494F
:10077000204601F04FFACCE700ED00E09CBD000000
:100780004CBD00004FA5000064A5000099A5000025
:10079000F4A5000043A6000063A60000C1A5000068
:1007A000D8B6000038A6000038B50E4B1B680021F3
:1007B000986803F083FB4FF40041002001F064F8D7
:1007C00018B1094A142100F0BBF8084D00F088FF69
:1007D0000A2445F001054FF47A40A847013CFAD1BC
:1007E00038BD00BF3800002033AB000050B7000018
:1007F0007047000007B5044B0093044A402300F003
:100800000DFF03B05DF804FB650800004A070020F7
:1008100030B50F4D0FCD89B06C460FC495E80F0071
:1008200084E80F0006222823CDE9002309480A4B5B
:1008300006930022694600F091FC18B1074A462150
:1008400000F07EF8064B00221A7009B030BD00BFE0
:1008500064B700001400002000509D009CAB000015
:100860004807002038B50E480E4C0F4D002323706A
:100870000378EB5CD2B273B1043003F027F818B1FF
:100880000A4A562100F05CF8094B1B7813B1237813
:10089000002BFCD038BD0C3002F0D0FCEFE700BFDD
:1008A0001400002049070020B00800209CAB000085
:1008B0004807002008B50848084A0378D35C33B1DC
:1008C000043002F081FFBDE80840FFF7A1BF0C3003
:1008D00002F048FCF7E700BF14000020B008002039
:1008E000FFF796BF10B50848D4B20378074AD35C27
:1008F000224623B1043002F0E9FF204610BD0C303F
:1009000002F09CFCF9E700BF14000020B0080020B2
:1009100008B50948094A0378D35C012243B1043081
:1009200003F04CF8002814BF4FF0FF30012008BD41
:100930000C3002F0F3FCF5E714000020B0080020B2
:1009400000B583B002900091019244F2010071461B
:100950006A46FFF77BFE03B000BD0000094B5A78E2
:1009600099780132D2B2914208BF0022197891429F
:100970001FBF02705A78182101FB023014BF0430E7
:1009800000207047A007002037B5044600200D4620
:1009900000F09CFA0DF10700FFF7E0FF90B10A4B61
:1009A0009DF80720057044605A700024002000F074
:1009B0009DFA24B9054B4FF48012C3F8002120465C
:1009C00003B030BD0424F1E7A007002000E100E0FF
:1009D000024B4FF43C6043F00103184790B700000E
:1009E000F8B51F491F4B0025C1F84051C1F84451CB
:1009F000C1F84851C1F84C51C1F80051C1F8045137
:100A00001B684BB3D1F8044517490968641A24F0F0
:100A10007F442F461A68A24209D8A41A15441A7CAA
:100A2000DE691AB1D3E905201F749047AEB90F4AA9
:100A30000F4B11781B788B4205D10133DBB2022BAF
:100A400008BF0023137012780A4B43F822500A4B58
:100A50004FF48012C3F80021F8BD3346DAE700BF37
:100A6000001001409C070020980700208C07002000
:100A70008D0700209007002000E100E02DE9F74FEE
:100A80009F49A04A0B7812789F4D9A4255D0013366
:100A9000DBB2022B08BF00239C4A0B709C491668EE
:100AA00051F82300331823F07F43136000222B6892
:100AB00017461446944613B942B12B6006E01968F4
:100AC000814228D902B12B60091A19604FF0010B3D
:100AD0002B68DFF8509200934FF0000A002F46D0A9
:100AE0003C46FF69894B666819688A4AA368701A90
:100AF00020F07F40904200F2E18003440120207406
:100B0000286823600021C4E90111E161002840F058
:100B1000DD802C60E2E7401A0C44D968D3F81CE071
:100B2000C3F800C031B1321922F07F42C3E901217C
:100B3000DF611F4673460122BDE70027BB46C7E7BA
:100B400099F802402E68431CDBB29C4208BF002388
:100B500089F80030182303FB009003798468022B86
:100B60006AD0032B00F09480012B00F0948099F858
:100B7000000099F801308342E2D12B68BAF1000FEE
:100B800005D1009A9A4202D1BBF1000F43D0002B4D
:100B900041D0D3F800A0604D5C4BD5F804751C68BB
:100BA000DFF884813E1B98F8003026F07F4603363C
:100BB0009BB94FF48033C5F84433C5F80433574B21
:100BC0004FF40032C3F880211A604FF00109C5F8D4
:100BD0000090FFF7FDFE88F80090B2452CBF54440A
:100BE000A41924F07F44C5F84045D5F80435DB1B33
:100BF00023F07F43E41B033324F07F44A3420AD94C
:100C0000D5F80435C5F84035FFF7E2FE434B4FF405
:100C10000032C3F80021424B00221A7003B0BDE835
:100C2000F08F44450BD04046D8F81C80B8F1000F37
:100C3000F7D1002323749AE7B0463046F6E78442A2
:100C40000DD1F3692B6053B93349019001228A60B9
:100C50002E490B60324B1A70FFF7BAFE0198D8F894
:100C60001C20D8F80030C26112B111680B44136027
:100C70002B68B34218BF4FF0010ADAE73074F66907
:100C80000123002EFAD1002B3FF471AF2E606EE7E6
:100C900000231846F5E7267C002E7FF468AFC16874
:100CA00061600369A3604369E3608369A3611C4BCE
:100CB0001B78002B18BF3146616013E7891B21F0B8
:100CC0007F41994234BF5B1A002317E701689942BC
:100CD00013D3C91A0160E0611BE79B1BCE6908466C
:100CE0003EB131460E68B342F7D8F61A0E600E4692
:100CF00001462360E661CC61F0E60146F2E700BF01
:100D00008D0700208C0700209C07002098070020FA
:100D100090070020FEFF7F000010014000E100E08E
:100D20008A070020A00700208B070020F8B51B4E83
:100D30004FF40033C6F88030BFF34F8FBFF36F8F8F
:100D4000174D184F4FF480330124C5F84833C5F8C8
:100D500008336C60FFF73CFEAC6000243C60FFF79A
:100D600037FE114B1C70114B0B221C809A70104BDC
:100D70001C60104B1C70104B4FF480121C70E02351
:100D8000C6F8802186F814333260C5F8084586F825
:100D90001133D5F804353B602046F8BD00E100E092
:100DA00000100140980700208B070020A0070020BA
:100DB0009C0700208D0700208C070020074B9B78A4
:100DC0004BB132B128B10368187C20B959745A610B
:100DD0007047072070470820704700BFA007002019
:100DE0002DE9F3411D4FBB7804460D4616469BB3D3
:100DF00090B31B4B4A1F9A422CD8436963B3437C80
:100E00000020012B0CBF88464FF0000800F05EF870
:100E10000DF10700FFF7A2FDD0B101230370114BC4
:100E20004460D3F80435C0E90486C0E902359DF872
:100E300007307B700024002000F058F824B90A4BDA
:100E40004FF48012C3F80021204602B0BDE8F081C3
:100E50000424F0E70724F7E70824F5E7A0070020BB
:100E6000FAFFFF000010014000E100E0064A92781E
:100E70003AB130B1426922B1002202740221FFF777
:100E800083BD0820704700BFA007002072B6024A49
:100E90001368013313607047AC080020034A1368DD
:100EA000013B136003B962B6704700BFAC08002075
:100EB000EFF30583C3F308032BB9EFF31480C043AA
:100EC00000F00100704701207047000008B5FFF7EF
:100ED000EFFF012803D00449432000F031F8BDE8BA
:100EE0000840FFF7D3BF00BF0BAC000008B5FFF709
:100EF000DFFF012803D00449512000F021F8BDE8AC
:100F00000840FFF7CBBF00BF0BAC00001EF0040F82
:100F10001CBFEFF309800AE0EFF308800549064A99
:100F2000884201D8904202D88D464FF00000034B12
:100F3000184700000000022000E00120BD0600006C
:100F400007B5ADF8000001916A46002144F20200A5
:100F5000FFF77CFB03B05DF804FB10B5034653E8D4
:100F6000000F0A4643E8002494F0000FF7D110BDAB
:100F700010B5034653E8002F42EA010043E800049D
:100F800094F0000FF6D110BD10B5034653E8000FE2
:100F900000EA010243E8002494F0000FF6D110BDEE
:100FA00010B5034653E8002F02EB010043E80004AC
:100FB00094F0000FF6D110BD10B5034653E8002F92
:100FC000A2EB010043E8000494F0000FF6D110BD3D
:100FD0000121FFF7CDBF0021FFF7D6BF10B50446B2
:100FE000002834D003681BB91A49FF20FFF7A8FF77
:100FF000636823B917494FF48070FFF7A1FFA36816
:1010000023B9144940F20110FFF79AFFE36823B9AE
:1010100010494FF48170FFF793FF238A23B90D49DC
:1010200040F20310FFF78CFFD4E9012321689B1ADB
:10103000DBB20A60013BDBB2FF2B226802D1002049
:10104000107110BD1168481C10600B70F2E70E2083
:10105000F7E700BF60AC000038B5044620B912497C
:101060004FF49270FFF76CFF0020FFF72FFF22680C
:10107000616813688B4215D9591E116013F8013C41
:10108000228AE56802FB03552268A36811685B1A8F
:101090001179DBB2994200D213710020FFF726FFCD
:1010A000284638BD0025F8E760AC000038B50C468E
:1010B000054620B90E4940F24710FFF741FF24B919
:1010C0000B494FF4A470FFF73BFF0020FFF7FEFE33
:1010D0002A681368591C1160EA68A41A2A8AB4FBAA
:1010E000F2F41C70BDE838400020FFF7FFBE00BFDF
:1010F00060AC00001FB503788DF8003043680193A1
:1011000083688DF80830C368054A0393054B684629
:1011100053F8213052F82110984705B05DF804FBD0
:10112000B4080020BC0800201FB503788DF80030FB
:101130004368019383688DF80830C368054A0393B8
:10114000054B684653F8213052F82110984705B0F6
:101150005DF804FBB4080020BC080020F0B5194B72
:1011600090F800C0DFF86CE043F82C20164B1646D0
:101170000A6943F82C200C464B7F0EF80C300746CA
:101180000FCC89B06D460FC594E80F0085E80F00BD
:101190003B78CDF810C01EF803304BB1002E0B4A3F
:1011A000694608BF3246381D02F016FA09B0F0BD94
:1011B000002E074A694608BF324607F10C0001F0CD
:1011C000E5FEF3E7BC080020B4080020F51000009D
:1011D00029110000B008002010B5044618B90649CE
:1011E0003120FFF7ADFEA2682AB16369216820694A
:1011F00098470023A36010BDB6AC00000EB433B511
:10120000059D044618B911494220FFF799FE63690C
:101210001BB90E494320FFF793FE23681BB90B4906
:101220004420FFF78DFE63681BB908494520FFF78E
:1012300087FE35B106AB01AA29462046019300F08E
:1012400071F802B0BDE8304003B07047B6AC0000A2
:10125000826830B40468551C8560A154D0E901321D
:101260009A4202D330BCFFF7B7BF30BC70470000D2
:101270002DE9F84F9946DDE90A431546824688462E
:101280000A460127AA420FD24F4538BF4F4613F0F6
:10129000010B01D164B900240126B9F1010F1CD959
:1012A00009F1FF396E43F8E70137B2FBF5F2E9E7E0
:1012B0009B0710D5B9F1000F0CBF30262026BC4289
:1012C000EAD9013C31465046FFF7C2FF002CE2D07C
:1012D000BC42F6D1E0E72026F1E7B8FBF6F39D42E9
:1012E000E0D9DFF83C90B8FBF6F3504619F803104C
:1012F00006FB1388FFF7ACFF3346AB42B6FBF5F6AF
:10130000F1D2BBF1000F00D034B9BDE8F88F202135
:101310005046013CFFF79CFFBC42F8D8F5E700BF00
:1013200096B700002DE9F74F0F469046054620B9C5
:10133000B74940F25220FFF703FE6B6923B9B44965
:101340004FF41570FFF7FCFD2B6823B9B04940F24C
:101350005520FFF7F5FD6B6823B9AD4940F25620E3
:10136000FFF7EEFD002F00F0558117F8011B49B97A
:101370002B7B002B00F04E81284603B0BDE8F04FD8
:10138000FFF72ABF252940F0BD8000263A4612F813
:10139000013B2D2B25D0302B27D02B2B28D0002400
:1013A0002A2B07F1010226D1D8F80030191DC8F800
:1013B00000101B6817461C443B782E2B27D10137A1
:1013C0004FF0000A0A20394611F8012BA2F1300C27
:1013D000BCF1090F1DD800FB0A22A2F1300A0F460A
:1013E000F1E746F001061746D0E746F00206FAE7B5
:1013F00046F00406F7E712F8013CA3F13001092991
:10140000DAD80A2101FB0434303C1746C8E74FF014
:10141000000A3A4612F8011B01F0FB006828174643
:10142000F8D0782909D86F290BD8632964D021D83E
:10143000252967D0582900F095803B78002B94D15E
:1014400096E770390829F8D801A252F821F000BFB8
:10145000E71500003B1400003B1400007915000064
:101460003B1400004F1500003B1400003B1400002B
:1014700065150000642901D06929DED1D8F8002063
:10148000111DC8F80010D2F800B08BEAEB72A2EB85
:10149000EB724FF001090A21092A37DCD14538BF28
:1014A000D1462CB1BBF1000F01DB720700D5013C26
:1014B000B30702D5BAF1000F03D0F00701D454BB33
:1014C0000024BBF1000F32DACBF1000B2D212846AE
:1014D000FFF7BEFE06F00302022A04D1BAF1000FA4
:1014E00001D144BB0024CDE9004653460A225946A7
:1014F0002846FFF7BDFEA0E7D8F800301A1DC8F84F
:10150000002019782846FFF7A3FE96E709F10109A4
:10151000B2FBF1F2C0E7A145D3D2013C202128461D
:10152000FFF796FE002CCBD0A145F6D1C9E7710795
:10153000D0D52B21CBE7A145D5D2013C302128467F
:10154000FFF786FE002CCDD0A145F6D1CBE7D8F829
:1015500000100A1DC8F80020CDE9004653460A22B3
:101560000968C5E7D8F800100A1DC8F800205346DE
:10157000CDE900461022F3E7D8F800301A1DC8F86C
:10158000002016F00106D3F8009024D1B9F1000F25
:1015900003D0484602F0D4FB0646B4421DD809F1F8
:1015A000FF3919F8011F00293FF447AF2846FFF71C
:1015B0004FFEF6E728460136FFF74AFE19F80610F7
:1015C0000029F7D1A642BFF438AF20212846013CBC
:1015D000FFF73EFEF6E70026F0E720212846013C13
:1015E000FFF736FED9E7D8F800301A1DC8F80020FA
:1015F000302128461C68FFF72BFE78212846FFF78C
:1016000027FE00220823CDE90032214610226FE791
:10161000FCAC000003B0BDE8F08F00BFF0B595B0A2
:101620001D46164608460C4600F00EFD1A9B0D930B
:10163000CDE9086500252B46082205A920460A9514
:101640008DF82C500C9500F027FD079B0293069B0C
:1016500003939DF814308DF8115003F00302012A12
:101660001DD1BDF81420059DC3F3C203C2F3831638
:101670008DF81030B20008230EA9204600F00CFDB2
:10168000C5F3952508AB0093324602AB0EA9284658
:1016900000F080FB204600F0DBFC15B0F0BD022A14
:1016A000F8D1BDF81650C3F3C203C5F389158DF800
:1016B00010300827082D2E4628BF08263B46324604
:1016C0000EA9204600F0E8FCAD1B08AB02AA31468B
:1016D0000EA8374400F0C2FB002DEBD1DAE7000082
:1016E00008B5FFF7FDF80748042100F0BBFA002811
:1016F00003DA05494820FFF723FC044B01225A7105
:1017000008BD00BFC8BD000049AD00002800002092
:10171000037813F0040215D003F00303012B03D068
:10172000022B09D0012070470B6802880233C2F3F4
:10173000831213440B60F5E70B684288023303EB16
:101740009213F7E7104670472DE9F04FDFF834A108
:101750000F4687B00446861C00201546FFF7B6FBEF
:10176000DAF800203A60DAE901130B4401339B1ADE
:101770000AF21C470AF583690AF21448B3421BD3E4
:101780000021002D77D004F00F04A40144F00504DB
:1017900064F30F01DAF80020DAF80830134003335D
:1017A00032444AF823100020CAF80020FFF79EFBBD
:1017B000012007B0BDE8F08F01213846FFF7F0FBAC
:1017C0004846FFF705FC4046FFF702FCDAF8040044
:1017D000DAF808B0029000EA0B0003300AEB800050
:1017E00002A9FFF795FF029B0246E0B90BEA03014D
:1017F0000AEB8101C8680390991C013303EA0B03CB
:101800000AEB830300F003000128DB6802912AD071
:1018100002280BD01A4901924FF4BF70FFF790FBDA
:10182000019A93460CE00BEA0300D6E74FEA134B0C
:10183000BDF80E30C3F38913033301EB9303029316
:101840004046FFF7C8FB10B1029BCAF80430594666
:101850003846FFF7A5FBDAE901231344DAF8002044
:1018600001339B1A8AE74FEA134BBDF80C30C3F3E0
:1018700083130B44E3E7A40544F006018AE700BFA5
:10188000B9AD0000C40800200B4B0C48FF2210B576
:101890009A600022C3F81824C3E90022C3F8142474
:1018A000012283F8202400F08BFB044610B9044881
:1018B00000F00AFC204610BDC4080020B4BD0000A2
:1018C000A8B7000030B50A4C71B10A4A0A49121B88
:1018D000D20800239A4201D1002030BD31F82350B4
:1018E000854202D00133F5E7034654F83300F4E7AC
:1018F0004CBD0000B4BD0000FC060020094B0139BE
:1019000003EBC000032909D8DFE801F0020A04064E
:101910000220704700797047407970470020704777
:10192000042070474CBD0000034BD3E90030C31ABC
:1019300058425841704700BFC40800202DE9FF47B6
:10194000FFF7F2FF002840F083807E4DC5F81804B1
:10195000BFF34F8F6868AC6800902040033005EB00
:1019600080006946FFF7D4FE009B18B1D5F8182413
:10197000002A69D004EA03029F1C013305EB8202AE
:10198000234005EB8303D268DB68029302F0030374
:10199000022B019200976ED1BDF806306A48C3F35E
:1019A0008918B8F1500FC14628BF4FF0500969F3AC
:1019B0008F1309F10801ADF8063000F019FB064657
:1019C000002800F0A98000F03FFB002330460822E9
:1019D00001A900F04BFB24EA07030133B9EB830FA5
:1019E0004FEA83003FD95FFA89F9002837D004EA2B
:1019F0000701C4B2A9EB040A0331A146534C05EB1D
:101A000081015FFA8AFA08234A46304600F02EFB2D
:101A100034B109F1080352462146304600F026FB56
:101A200008F1030807EB98070097D5F81834D5F8A4
:101A30001044002B5FD0304600F00AFBFFF774FF24
:101A400080F00100C0B204E02A689A4204D86A60BB
:101A5000002004B0BDE8F08704EA03007EE73B49BC
:101A600004468246CFE704EA0701033108234A46C9
:101A700005EB8101D1E7012B4ED1BDF8043032488E
:101A8000C3F38311062928BF062161F389130231AC
:101A900001F00F018900ADF8043000F0A9FA064604
:101AA000002839D000F0D0FA0023082201A93046DE
:101AB00000F0DCFA0027BDF80420C2F38312BB005B
:101AC000BA4203F10803B0D900994A1C21400331FE
:101AD000009205EB81010422304600F0C7FA01377D
:101AE000E9E7E3685B7923B1236831461B68204648
:101AF0009847E3681C68002CF3D1304600F0A8FA40
:101B00002046FFF7E3F9D5F818340BB9009B6B605A
:101B10000020FFF7EBF991E7D5F8104454B90C4BCE
:101B20000C480D49C01AC008000440F0020000F043
:101B300071F883E7236820469B689847E3681C6830
:101B4000ECE700BFC4080020B4BD0000D0080020AE
:101B50004CBD00009CBD000010AE00002DE9F74F09
:101B6000274E04460F46914601A901221846D6F891
:101B700008A09846FFF7E8FD78B3019D0023A81C54
:101B8000434503EB000132D100211E48FFF7E5F980
:101B90004FEA144980F3100B1B4B1C4A9B1AB9EBFC
:101BA000D30F04D31A4940F2A310FFF7C9F96B1CF5
:101BB00003EA0A03E40006EB830304F0380449EA6D
:101BC0000B4205EA0A0544F00104DA60033544EAF1
:101BD000881343EA872346F8253096F820341BB152
:101BE000FFF7ACFE0028FBD103B0BDE8F08F01EA9F
:101BF0000A0106EB810159F82320CA600133BFE7CF
:101C0000C4080020E00C0020B4BD00004CBD000062
:101C1000B9AD000000231A46FFF7A0BF07B50123A6
:101C2000019201AAFFF79AFF03B05DF804FB1FB50C
:101C3000CDE90123069B039301AA0323FFF78EFF3F
:101C400005B05DF804FB1FB5CDE90023069B0293A8
:101C5000079B03936A460423FFF780FF05B05DF8F6
:101C600004FB000030B51349D1F8104403460020AE
:101C700022464AB9DC682071D1F8104484B9C1F811
:101C80001034DB681A600AE0D2681579854201D009
:101C90001268EEE701300A28EAD14FF0FF3030BD7C
:101CA000E468DA6824681460D1F81024D2681360FC
:101CB000F5E700BFC408002038B5084B0125D3F86C
:101CC000104483F8205404B938BDE3685D7123687B
:101CD00020465B689847E3681C68F4E7C408002066
:101CE00010B5037A052B0C460FD0437A23B1084A6E
:101CF00008492046FFF782FA07492046FFF77EFA97
:101D00002046BDE81040FFF767BA002AF8D0F3E795
:101D100025AE00002AAE00004AAE000073B5C388AD
:101D200004460D4633B1144A00921449144A284619
:101D3000FFF764FA217A05291CD0637A4BB1A08899
:101D4000FFF7DCFD0F4B104953F820202846FFF722
:101D500055FA227A0D4BA08853F822600021FFF734
:101D6000B1FD0B4903463246284602B0BDE870403B
:101D7000FFF744BA02B070BD25AE000035AE0000DA
:101D80002DAE0000B4B700002AAE0000D8B70000A6
:101D90004DAE00002DE9F04385B01F460C9D002399
:101DA00095F80C902B7306460C469046294638460B
:101DB000FFF7B4FFB8F1060F09D8DFE808F0041206
:101DC000181F2833400031462846FFF717FA002233
:101DD00029463846FFF784FF85F80C9005B0BDE82A
:101DE000F083226831462846FFF708FAEFE7D4E986
:101DF000002331462846FFF701FAE8E7A36800937D
:101E0000D4E9002331462846FFF7F8F9DFE7E36815
:101E10000193A3680093D4E9002331462846FFF7D5
:101E2000EDF9D4E723690293E3680193A368009373
:101E3000D4E9002331462846FFF7E0F9C7E7636994
:101E4000039323690293E3680193A3680093D4E9A1
:101E5000002331462846FFF7D1F9B8E708292DE9D4
:101E6000F84F80460E4617461C463BD8002593F88F
:101E70000C901D7319461046FFF750FFDFF88CA039
:101E8000DFF88CB0AE422FD918F80520594620460D
:101E9000FFF7B4F90135082DF4D11949194DDFF8D0
:101EA00074B02046FFF7AAF94FF0000A564522D930
:101EB00018F80A207E2A1CD81BF8021011F0970F80
:101EC00008BF2E2210492046FFF798F90AF1010AAF
:101ED000BAF1080FEAD1012221463846FFF700FF88
:101EE00084F80C90BDE8F88F51462046FFF786F93C
:101EF000D0E72E22E6E729462046FFF77FF9E5E7FF
:101F000061AE00005FAE000063AE00005DAE000099
:101F100057AE000019B900002DE9F74F99469DF81A
:101F20003030009388469346064618B92349B620B8
:101F3000FFF706F8F28871794A43043A4A4505D812
:101F40001E490192C420FEF7FBFF019ADBF80070E6
:101F5000B6F806A007EB0901914209F1040488BF15
:101F6000A2EB0907B4FBFAF5CBF800700AFB1544A5
:101F700045B9AAEB040BBB4528BFBB462FB903B03C
:101F8000BDE8F08F3668013DF2E7009B043408EBB2
:101F9000050034445A466BB12146A7EB0B0701F00C
:101FA00095FFBA455D443668D3464FF0000428BF1C
:101FB000BB46E3E701462046EFE700BFB1AE0000B5
:101FC000FFF70CB8F8B546790146721E05460023A6
:101FD00093422D6803D30024A64202D8F8BD0133F2
:101FE000F6E70F682846FFF761F801343946F3E752
:101FF0002DE9F041CD1C078A0646FFF72DF8043F76
:102000003D440446B5FBF7F5D0B14FF48073EDB213
:10201000C7808380013D066080460027AF4210D212
:102020003046FFF719F840B1637901336371013726
:10203000C8F8000006608046F0E72046FFF7C2FFC0
:1020400000242046BDE8F08101210430FEF7A8BF3E
:1020500010B5012104460430FEF7AEFFC0B220B92E
:102060002046BDE81040FFF7ADBF10BD1FB51446B8
:1020700003920022009203AAFFF74EFF039BA342A4
:1020800006D00449F62004B0BDE81040FEF758BF62
:1020900004B010BDB1AE00001FB51446039201227A
:1020A000009203AAFFF738FF039BA34207D005491C
:1020B0004FF4807004B0BDE81040FEF741BF04B09B
:1020C00010BD00BFB1AE000082680023936082683B
:1020D0001361826853618268D3608268536082684A
:1020E0001360704710B50B4AA2F58C739A4201D861
:1020F00000200CE0D11A091103EBC10453F8311090
:10210000814205D802D204F10803EFE7606810BDF0
:102110002246EBE704B9000008B5FFF7E3FF024BE6
:10212000002808BF184608BD04B9000007B54FF0E5
:102130008043D3F8002162B10020C3F80001D3F836
:1021400000210092009A0122C3F808230D4B1B685E
:1021500098474FF08043D3F8042182B10022C3F89E
:102160000421D3F804210192019A0222C3F8082322
:10217000044B1B68012003B05DF804EB184703B063
:102180005DF804FB500E002000F1804000F5C040D7
:10219000002382B0036003680193019B02B0704783
:1021A000C208012300F007008340885C03438B547E
:1021B0007047000010B50368292B044604D907496D
:1021C00040F2CD10FEF7BCFE23681F2B83BF03F047
:1021D0001F03236002484FF0A04010BD94A40000EC
:1021E0000003005013B5019001A80C46FFF7E2FF71
:1021F000019B00EB8300D0F8003723F44033C0F894
:102200000037D0F8003743EA0443C0F8003702B083
:1022100010BD00004FF0A043D3F810350360024B0F
:10222000D3F8103543607047000300502DE9F04F9C
:1022300000248BB0CDE90244604D4FF4807201213F
:1022400002F1804303F5C0431B68012B07D1D5F889
:1022500004330B4203D090B2FFF796FF0C430432D5
:10226000B2F5907F4FEA4101EAD1544BD3F87C316B
:10227000012B08D14FF4BE70FFF786FF02A844F08F
:102280000044FFF7C7FFE3B2D3B14D4F002501264D
:10229000344210D0AB0003F1804303F5C043D3F8C0
:1022A0001005D3F8101557F8253023B1C1F30141BB
:1022B000C0F3052098470135082D4FEA4606E7D1BF
:1022C000002C77DA0023CDE904334FF0FF33CDE95A
:1022D0000633DFF8ECB03B4B019300273D46019BF2
:1022E00013F9014F0193631C4ED0C4F3C2080122BD
:1022F000E3B204F03F0604F0070402FA04F408F124
:1023000028020DEB020818F8102C22423CD00BEBEF
:1023100006024FEA931A92F930205BF82290B9F145
:10232000000F07D1BAF1030F2ED104A93046FFF7F1
:1023300037FF02E0BAF1030FF7D008A80896FFF7BD
:1023400039FF089A18F8201C02F5E072214250F873
:102350002220C2F3014206D0022A15D1BAF1030F9E
:102360000CD1514605E0032A0ED1BAF1030F05D175
:1023700002213046FFF736FF0135EDB2B9F1000F0B
:1023800002D051463046C8470137042FA7D18DB13E
:1023900008A8FFF73FFF029B089A9A42099B02D1C7
:1023A00003998B4206D002920393049A059B0692EE
:1023B000079390E70BB0BDE8F08F00BF00600040CE
:1023C000580E0020B10E002010B5054C23681BB933
:1023D00004495120FEF7B4FD2368BDE810401847BA
:1023E000C00E0020A8B2000038B50C4628B90C4930
:1023F0007720FEF7A5FD002038BD0A4B9842FAD1A0
:102400000020FEF763FD084B1D7915B901221C6001
:102410001A710020FEF76AFD002DECD01120EBE7C9
:10242000A8B2000000200040C00E002018B90649E4
:102430009B20FEF785BD054B984201BF044B00224F
:102440001A601A71704700BFA8B200000020004057
:10245000C00E00200023435082B043580193019BDB
:1024600002B0704738B51D4602230B710B684A71E4
:1024700004467BB112F0040F14BF92218221100791
:1024800048BF41F02001D306236848BF21F08001F6
:10249000C3F8001320684FF48271FFF7DBFF12F0DE
:1024A000800F206805BF012343514019002038BD2B
:1024B00070B5D0F8103105460C4653B14FF4887111
:1024C000FFF7C8FF63795A0703D523680BB10120D2
:1024D0009847D5F814315BB14FF48A712846FFF75D
:1024E000B9FF63791B0703D523680BB10220984716
:1024F000D5F81C315BB128464FF48E71FFF7AAFF67
:10250000607910F0100002D1236803B19847D5F824
:10251000043163B14FF482712846FFF79BFF01231A
:10252000237123681BB1BDE870400320184770BDBC
:1025300010B50368292B044604D9074940F2CD1091
:10254000FEF7FEFC23681F2B83BF03F01F032360ED
:1025500002484FF0A04010BD94A4000000030050BA
:102560002DE9F04104460E46154622B91D4940F2B8
:10257000AB20FEF7E5FC2F6827B91A494FF42E70FF
:10258000FEF7DEFC04EB4618C8F82075AF881FBBC9
:10259000144940F2C120FEF7D3FCC8F82475AF6897
:1025A000B7F1807F04D30F4940F2CB20FEF7C8FC7F
:1025B0004FEA461804EB4616C6F82875ED68B5F1E3
:1025C000807F04D307494FF43570FEF7B9FC4444CB
:1025D000C4F82C55BDE8F0813B04DED5014940F23A
:1025E000C220D8E7FBB200002DE9F04F044689B0C5
:1025F00090460D4619B962498020FEF7A1FC277963
:10260000604EFB00019306EBC7031B79002B40F0E3
:10261000B48046F8378005F1FF390DF1100805F157
:10262000030A19F8012FFF2A00F0A28022F0800B84
:102630001306C8F800B0CDF80CB003A840F19080A4
:10264000FFF776FF039901228A40C0F8082503A806
:10265000CDF80CB0FFF76CFF039B03F5E07303228A
:1026600040F82320D14508F10408DAD12368049A00
:10267000C3F86025059AC3F86425069AC3F868254F
:10268000079AC3F86C2523680122C3F80025B5F921
:102690000830D4F8008095F805B095F806A0B5F894
:1026A0000890002B04DA38494FF42870FEF748FCF4
:1026B000C8F80CB5C8F804A5C8F8089523686A8955
:1026C000C3F8102522680023C2F800322268C2F83D
:1026D000003320684FF48E71FFF7BCFE20684FF482
:1026E0008871FFF7B7FE20684FF48A71FFF7B2FEDA
:1026F00020684FF48271FFF7ADFE56F837303BB3D8
:102700002D792768072D47F3073703D91F496B2019
:10271000FEF716FC002FB6BF1D4B07F1604707F010
:102720000F074FEA4515EDB2AABF07F56147DD5522
:1027300087F80053236843F30733002B08DB01229B
:10274000590903F01F0302FA03F3124A42F8213039
:10275000019B1E4401233371002009B0BDE8F08FB6
:10276000FFF7E6FE039901228A40C0F80C256EE7C8
:102770004FF0FF33C8F8003074E70820EDE700BFE2
:102780003DB30000C80E0020FBB2000088B300007B
:1027900014ED00E000E100E02DE9F04115461E4691
:1027A0000279244B03EBC208044698F804300F4624
:1027B00023B921494FF48D70FEF7C2FB25B91E499C
:1027C00040F21B10FEF7BCFB3B6803F06043B3F123
:1027D000005F04D018494FF48E70FEF7B1FB2068FB
:1027E0003A460021FFF7BCFE3A4620680121FFF778
:1027F000B7FE226805F0010303EB5505C2F8145536
:10280000F20715D416F0020203D0002B0CBF0422ED
:1028100008222168002BC1F800222046F2B241466E
:1028200008BF0823BDE8F04118BF0C23FFF71ABE0C
:102830001022EEE7C80E00203DB3000070B50D4C2D
:102840000379DE0004EBC30305461B7923B90A496B
:102850004FF4C870FEF774FB2A6834442379D2F829
:102860000421DBB21AB9981E18BF012070BD0120E7
:102870002071FBE7C80E00203DB3000038B50F4BB8
:10288000027903EBC20304461B790D4623B90C49B8
:1028900040F27310FEF754FB2046FFF7CFFF50B90C
:1028A000236801225A602046FFF7C8FF18B9002D9F
:1028B000F9D1284638BD0125FBE700BFC80E00202E
:1028C0003DB3000001490248FFF7F2BDC80E0020E9
:1028D00000C0014001490248FFF7EABDD00E0020C8
:1028E0000010024000F1804000F5E040002382B07B
:1028F000036003680193019B02B07047F0B5544B2D
:10290000544CD3F8043194F82E2085B0002B3BD0E2
:102910004FF48270FFF7E6FF2AB394F82F3013BB11
:102920004B4AD2F80031002B32D04FF48070FFF7C1
:10293000D9FF638B94F82D00834250D921891B1A4B
:102940009BB289B26383CB1A616801EB4301C2F881
:102950002C16C2F830064FF48270FFF7C3FF3C4BD1
:1029600001225A6014E0636802932389ADF80C30A9
:10297000E36800218DF8041033BB2374236801A899
:102980009847002384F82F3094F82E30002BC7D1BD
:102990002F4BD3F810315BB14FF48870FFF7A2FFD3
:1029A0000023237402238DF8043001A8236898477C
:1029B000274BD3F814310BB34FF48A70FFF792FF13
:1029C0000023237405B0F0BD208B608363602081F9
:1029D000E160002AD2D11E4B01221A60CEE7BAD1A3
:1029E000E168012084F82F0031B100206083C2F833
:1029F0002C16C2F83036AEE76183ACE766694FF05B
:102A000000470125002EDDD0B6FA86F227FA02F340
:102A10004632920026EA030602F1804303F5E043C2
:102A20001B68002BEED01046A2F58C72FFF75AFF00
:102A3000D30882F00402C2F380028DF808308DF8CA
:102A4000045023688DF8092001A89847DAE700BFF1
:102A500000700040D80E002010B50368292B0446F2
:102A600004D9074940F2CD10FEF76AFA23681F2BFC
:102A700083BF03F01F03236002484FF0A04010BD46
:102A800094A400000003005007B5019001A8FFF7CF
:102A9000E3FF019A01239340C0F80C3503B05DF8C1
:102AA00004FB07B5019001A8FFF7D6FF019A0123A7
:102AB0009340C0F8083503B05DF804FB13B5144B20
:102AC000D3F8182112B30022C3F81821D3F8183113
:102AD000104C0193019B236823B90F494FF42770D1
:102AE000FEF72EFAE07FFF2803D0A37F5BB1FFF74C
:102AF000CBFF002363772372D4E90031074802B08B
:102B0000BDE810401847FFF7CCFFF2E702B010BD58
:102B100000300240080F0020D6B30000100F002044
:102B20002DE9F743002406460F4600F5A0754FF443
:102B30008038A1462B688BB1D6F8043308FA04F22A
:102B40001A420BD0C5F800902B680193019BA3009B
:102B500003F5A07398B2D7E9003198470134042CEB
:102B600005F10405E6D103B0BDE8F0830149024850
:102B7000FFF7D6BF2C0F002000800040014902481B
:102B8000FFF7CEBF380F00200090004000234350D5
:102B900082B043580193019B02B070470A7B034601
:102BA000032A2CD8DFE802F024281C028868154A82
:102BB000904204D1D3F84C250869904209D1886825
:102BC00040F2022290421AD1D3F84C254969914231
:102BD00015D000200622C3F80005C3F80025704771
:102BE000D3F84C2508699042F3D1D3F83C25EDE7A2
:102BF000D3F84C250969EAE7D3F83C25FAE7012028
:102C0000704700BF00020400F0B50B6887B00546AE
:102C10000C4623B9484940F28620FEF791F9D5F8D1
:102C20002431B3B14FF492712846FFF7AFFFD5F8C6
:102C3000043173B9A368C5F808330223A360A368FD
:102C4000C5F8043301232B626B6184F82E3007B082
:102C5000F0BDD5F804316BB34FF48271284604F10E
:102C60000C07FFF793FF0FCF01AE0FC63B68336031
:102C700094F82E303BB921462846FFF78FFF80F0AD
:102C8000010084F82E004FF4B0712846FFF77EFF54
:102C90004FF4AE71FFF77AFF94F8303013B194F827
:102CA0002E30CBB10023C5F80032A360234BC5F80A
:102CB000083311E04FF4A4712846FFF767FF237B28
:102CC0001BBB04F10C070FCF01AE0FC63B6833608E
:102CD00094F83030002BE6D0D5F8C434C5F8C434AD
:102CE0009A0724D413F0050F23D194F82E309B00BB
:102CF000DBB28DF8003094F830300BB984F82F3007
:102D0000D4E9003168469847A1E74FF40073C5F84D
:102D1000003240F20223A36003F1CE73C5F80833FA
:102D2000A368C5F804330123AB602B628FE701234E
:102D3000DFE70223DDE700BF2DB4000002029C01A3
:102D400001490248FFF760BF440F002000300040F7
:102D500002494FF04020FFF757BF00BF780F002017
:102D60000023435082B043580193019B02B0704747
:102D70000A4610B54FF48E71FFF7F2FF136A91689F
:102D8000C95C136A01331362C0F81C1510BD08B585
:102D900002464FF492710068FFF7E2FF10684FF4AB
:102DA0008471FFF7DDFF136801221A6008BD00007F
:102DB00010B50368292B044604D9074940F2CD1009
:102DC000FEF7BEF823681F2B83BF03F01F032360A9
:102DD00002484FF0A04010BD94A400000003005032
:102DE00007B5019001A8FFF7E3FF019B03F5E0732E
:102DF000022240F8232003B05DF804FB10B58B6974
:102E00000A464FF4847123B9FFF7AAFFD0F81835AA
:102E100010BDFFF7A5FF536AD168D0F81805C85454
:102E2000536A01335362F3E71FB501238DF8003075
:102E3000044BCDE90110D3E900126846904705B074
:102E40005DF804FBAC0F002030B54E4DD5F80433CF
:102E50009A0585B051D5D5F82431002B4DD04FF4CB
:102E600092712846FFF77CFF4FF40173C5F80833D1
:102E7000454B93F829200AB901226A604149022290
:102E80008DF80020D1F88024C1F8802403929A693B
:102E90000292DA6801920022C3E906226846D3E969
:102EA000001290473748D0F81C315BB1364A51695F
:102EB000136A99424ED992F82830002B4AD1114614
:102EC000FFF756FF2F48D0F84431002B57D04FF46E
:102ED000A271FFF745FF2C4B93F829200AB101227C
:102EE00002609A69002A4AD0586AD96800229A6119
:102EF00005B0BDE83040FFF797BFD5F804335B0756
:102F0000D0D5D5F80831002BCCD01F4C1D48214618
:102F1000FFF774FF636AA2699A42C3D1E36953B1B0
:102F2000A3612369E168E3600023606AE36163628F
:102F3000FFF77AFFB6E794F829300BB901236B60ED
:102F4000104B4FF40172C3F808230023606AE16854
:102F5000A361EDE70B484FF48E71FFF701FF536952
:102F6000002BAFD051690291002391688DF8003099
:102F7000019153616846D2E900139847A2E705B072
:102F800030BD00BF00200040AC0F00202DE9F7430A
:102F9000054691460C4619B96B49AA20FDF7D0FFAA
:102FA00095F80480694E2C2303FB086393F82A30BC
:102FB000002B40F0C48066492868FFF715FA0746E1
:102FC000002840F0BE8023685A1C13D001A801934A
:102FD000FFF7EEFE019A01239340C0F808352368FD
:102FE000019301A8FFF7E4FE019B03F5E0730322C0
:102FF00040F823206368581C09D001A80193FFF70B
:10300000D7FE019B03F5E073002240F823202B68D4
:10301000A269C3F82425217D637D2A680B43C2F889
:103020006C35D4E900122B68C3F81425C3F80C15CD
:10303000237D012B2AD1A368591C09D001A8019333
:10304000FFF7B6FE019B03F5E073002240F8232052
:10305000E3685A1C13D001A80193FFF7A9FE019A57
:1030600001239340C0F80835E368019301A8FFF7F6
:103070009FFE019B03F5E073032240F82320D4E96F
:1030800002122B68C3F80825C3F810152C2303FB84
:1030900008F3F218C2F804902269F250B9F1000F57
:1030A00039D0286894F81C902A4A4FF48E71FFF7A3
:1030B00057FE28684FF4A271FFF752FE2B68C3F841
:1030C00004232C68B9F1070F44F3073403D92249CC
:1030D0006B20FDF735FF002CB6BF204B04F1604498
:1030E00004F00F044FEA49195FFA89F9AABF04F501
:1030F000614403F8049084F800932B6843F307338A
:10310000002B08DB0122590903F01F0302FA03F325
:10311000134A42F821302B680422C3F800252C23DF
:1031200003FB08660023C6E9063386F8293073617D
:10313000012386F82A30384603B0BDE8F08308271B
:10314000F9E71127F7E700BF7EB40000AC0F0020BD
:10315000492E00008000020088B3000014ED00E05A
:1031600000E100E02DE9F843036806792A4D0022CA
:10317000C3F800252C2303FB065304465B68B3B158
:103180000368264AC3F80823036843F30733002B78
:103190000DDB5A09012103F01F03994002F12003BE
:1031A0001F4A42F82310BFF34F8FBFF36F8F23687E
:1031B0004FF0FF32D3F80C05D3F81495D3F8087507
:1031C000D3F81085C3F81425C3F80C252368904262
:1031D000C3F80825C3F8102501D0FFF701FEB9F1A7
:1031E000FF3F02D04846FFF7FBFDB8F1FF3F02D09A
:1031F0004046FFF7F5FD7B1C02D03846FFF7F0FD97
:103200002068FFF713F92C2303FB0655002385F8EC
:103210002A306B60BDE8F883AC0F00208402020006
:1032200000E100E00279044B2C2101FB02335869D4
:10323000003818BF01207047AC0F00202DE9F84F6F
:10324000DFF8D48007792C2303FB0783064693F825
:103250002A30012B8946924604D02E494FF48C70B7
:10326000FDF76EFEB9F1000F04D12A4940F21910A2
:10327000FDF766FEBAF1000F04D126494FF48D70B8
:10328000FDF75EFE3046FFF7CDFF044600283CD137
:103290002C2507FB058B4FF48E71CBF814A0CBF8CF
:1032A0000890CBF820008BF828003068FFF758FD15
:1032B000336801229A6030685946FFF759FDDBF800
:1032C00004305D461BBB3068DBF814402B6A9C421F
:1032D00011D83368D3F81C21002AFBD00122DA6010
:1032E00000202C2303FB078300225A61BDE8F88FDE
:1032F00095F828303BB9D0F81C31002BF8D059464E
:10330000FFF736FDE2E70F20EBE71120EEE720465E
:10331000ECE700BF7EB40000AC0F00202DE9F843BD
:10332000464C06792C2303FB0643054693F82A30C6
:10333000012B8846174604D041494FF4B670FDF77B
:10334000FFFDB8F1000F04D13D4940F26D10FDF7CB
:10335000F7FD27B93A494FF4B770FDF7F1FD2C237B
:1033600003FB0643596821B12B684FF40172C3F87F
:1033700008232C2303FB06439A6952B1DA69002A19
:103380003FD021B12B684FF40172C3F80423112000
:1033900035E09F61C3F80C805A6217462C2303FB6B
:1033A0000643DF6193F829301BB912B92846FFF7AD
:1033B000EEFC2C2707FB06482868D8F80430A3BB8E
:1033C0004FF4A2714746FFF7CBFC2868D0F82421C0
:1033D000D0F80811D0F84431194316D1002AF4D09E
:1033E00000232C2101FB06440021A16112BB1BBB61
:1033F00094F829102B680122A9B11A600020BDE8B9
:10340000F883C3F810800122C8E753EA0209E8D123
:103410003946FFF7F3FCD8F82430D8F818209A4240
:10342000D3D84A46DCE75A60E8E74FF40173C0F8A6
:103430000433E3E70320E2E70F20E0E7AC0F0020CE
:103440007EB400000023435082B043580193019B97
:1034500002B0704710B50368292B044604D9074908
:1034600040F2CD10FDF76CFD23681F2B83BF03F0E6
:103470001F03236002484FF0A04010BD94A4000039
:103480000003005007B5019001A8FFF7E3FF019B7F
:1034900003F5E073022240F8232003B05DF804FB3B
:1034A0001FB501238DF80030044BCDE90110D3E99D
:1034B00000126846904705B05DF804FBD80F002065
:1034C0007FB5434AD2F82461002E60D010464FF4F5
:1034D0009271FFF7B7FF02238DF80030D2F88034E5
:1034E000C2F880340393D2F83C350293394BDA6842
:1034F00001920022C3E906226846D3E900129047F0
:103500003348D0F8443173B14FF4A271FFF79AFFFA
:10351000304B9A693AB10022C3E90622D968D0F843
:103520003C05FFF7BDFF2A48D0F82031ABB14FF47E
:103530009071FFF787FF0123C360264B5A6962B180
:10354000D0F84C150291002299688DF80020019165
:103550005A616846D3E9001290471D48D0F85831A7
:103560009BB14FF4AC71FFF76DFF1A4B5A6962B112
:10357000D0F84C150291002299688DF80020019135
:103580005A616846D3E90012904704B070BDD2F882
:103590001031002BB4D04FF488711046FFF752FF62
:1035A0000C4BD2F83C0599698842A9D1DC69D968ED
:1035B00064B1D2F8005225F02005C2F800521A6911
:1035C0009C61DA60DE61FFF76BFF99E79C61FAE7C7
:1035D00000200040D80F00202DE9F7430546914612
:1035E0000C4619B97149CF20FDF7AAFC95F8048063
:1035F0006F4E242303FB086393F82030002B40F028
:10360000D1806C492868FEF7EFFE0746002840F09D
:10361000CB8023685A1C13D001A80193FFF71AFF2F
:10362000019A01239340C0F808352368019301A84B
:10363000FFF710FF019B03F5E073032240F82320FE
:103640006368581C09D001A80193FFF703FF019B91
:1036500003F5E073002240F823202B68A269C3F829
:103660002425217D637D2A680B43C2F86C35D4E99B
:1036700000122B68C3F80C15C3F81425237D012B09
:103680002AD1A368591C09D001A80193FFF7E2FED3
:10369000019B03F5E073002240F82320E3685A1CE5
:1036A00013D001A80193FFF7D5FE019A012393409F
:1036B000C0F80835E368019301A8FFF7CBFE019B32
:1036C00003F5E073032240F82320D4E902212B689C
:1036D000C3F80815C3F81025242303FB08F3F218D8
:1036E000C2F804902269F250B9F1000F48D028685E
:1036F00094F81C90304A4FF48871FFF7A3FE2868B5
:103700004FF49071FFF79EFE28684FF49271FFF717
:1037100099FE28684FF4A271FFF794FE28684FF4D1
:10372000AC71FFF78FFE2B68C3F804232C68B9F146
:10373000070F44F3073403D920496B20FDF700FC41
:10374000002CB6BF1E4B04F1604404F00F044FEA96
:1037500049195FFA89F9AABF04F5614403F8049096
:1037600084F800932B6843F30733002B08DB012216
:10377000590903F01F0302FA03F3124A42F82130F9
:103780002B680822C3F80025242303FB08660023C6
:10379000C6E906337361012386F82030384603B04A
:1037A000BDE8F0830827F9E71127F7E7CFB4000059
:1037B000D80F0020C13400001003420088B300007D
:1037C00014ED00E000E100E02DE9F843364D067904
:1037D0000268242303FB065304465B68ABB1334BFA
:1037E000C2F80833036843F30733002B0DDB5A0993
:1037F000012103F01F03994002F120032C4A42F8F3
:103800002310BFF34F8FBFF36F8F2268D2F80032BF
:1038100023F02003C2F80032236801225A60206896
:103820004FF4AC71FFF70EFE2368DA602368D3F81B
:103830005821002AFBD00022C3F8002523684FF04E
:10384000FF32D3F80C05D3F81495D3F80875D3F8E4
:103850001085C3F80C25C3F8142523689042C3F8DB
:103860000825C3F8102501D0FFF70CFEB9F1FF3F82
:1038700002D04846FFF706FEB8F1FF3F02D04046AF
:10388000FFF700FE7B1C02D03846FFF7FBFD2068E7
:10389000FEF7CCFD242303FB0655002385F82030DA
:1038A0006B60BDE8F88300BFD80F00201003420012
:1038B00000E100E00279044B242101FB0233586946
:1038C000003818BF01207047D80F00202DE9F047BD
:1038D000384F90F804A0242303FB0A73054693F89D
:1038E0002030012B8846914604D0334940F22D10F8
:1038F000FDF726FBB8F1000F04D12F494FF4977064
:10390000FDF71EFBB9F1000F04D12B4940F22F1037
:10391000FDF716FB2B7913B9B9F5803F04D326497F
:103920004FF49870FDF70CFB08F06043B3F1005FB3
:103930003AD12846FFF7BEFF0446002836D1242698
:1039400006FB0A764FF49071C6F81490C6F808800A
:103950002868FFF777FD4FF4AC712868FFF772FD18
:103960002B687269B168C3F84415C3F848252B6801
:1039700001229A607368DBB92B68D3F82021D3F851
:1039800058010243F9D068B90122DA602A68D2F8F6
:103990005831002BFBD0242303FB0A7700237B61E3
:1039A000BDE8F0870F20F6E71020F9E71120F7E7D0
:1039B0002046F5E7D80F0020CFB400002DE9F843EA
:1039C0004B4D90F80480242303FB0853044693F8DE
:1039D0002030012B0F46164604D046494FF4C070E4
:1039E000FDF7AEFA27B9434940F28110FDF7A8FA76
:1039F00026B940494FF4C170FDF7A2FA237913B9F3
:103A0000B6F5803F04D33B4940F28310FDF798FAA6
:103A100007F06043B3F1005F67D1242303FB085331
:103A2000596821B123684FF40472C3F80823242392
:103A300003FB08539A695AB1DA69002A43D021B1CD
:103A400023684FF40472C3F804231120BDE8F883FF
:103A50009E61DF609146242303FB08584FF4887170
:103A6000C8F81C202068FFF7EDFC20684FF4A27115
:103A7000FFF7E8FC2368C3F83475C3F8386523689A
:103A8000B9F1000F24D101221A602679236824227B
:103A900002FB0652526812BBD3F81011D3F844212E
:103AA000D3F82401114302D10028F5D00A4624237B
:103AB00003FB06550023984218BF03209A42AB61CE
:103AC00018BF0F20C2E71F6132464FF00109C2E75D
:103AD000D3F8002242F02002C3F80022D5E74FF4C9
:103AE0000472C3F804230020B0E71020AEE700BF43
:103AF000D80F0020CFB40000BFF34F8F0549064B0D
:103B0000CA6802F4E0621343CB60BFF34F8F00BF7B
:103B1000FDE700BF00ED00E00400FA054FF0805320
:103B2000D3F830210D2A03BFD3F83401B0FA80F066
:103B3000400900207047000008B5FFF7EFFF40B1D3
:103B40004FF080430022C3F80C21C3F81021C3F8C2
:103B50003825FFF7E3FF002846D04FF08052584B3E
:103B6000D2F80414C3F82015D2F80814C3F82415A9
:103B7000D2F80C14C3F82815D2F81014C3F82C1579
:103B8000D2F81414C3F83015D2F81814C3F8341549
:103B9000D2F81C14C3F84015D2F82014C3F8441509
:103BA000D2F82414C3F84815D2F82814C3F84C15D9
:103BB000D2F82C14C3F85015D2F83014C3F85415A9
:103BC000D2F83414C3F86015D2F83814C3F8641569
:103BD000D2F83C14C3F86815D2F84014C3F86C1539
:103BE000D2F84424C3F87025FFF798FF48B14FF08E
:103BF0008043D3F80024D10744BF6FF00102C3F81B
:103C00000024304AD2F8883043F47003C2F8883078
:103C1000BFF34F8FBFF36F8F4FF01023D3F80C22F9
:103C2000D2071DD5284B0122C3F80425D3F8002460
:103C3000002AFBD04FF01022D2F80C3223F00103FF
:103C4000C2F80C32204BD3F80024002AFBD000220B
:103C5000C3F80425D3F80024002AFBD0FFF74CFF5B
:103C6000D3F80022002A03DBD3F80432002B22DA37
:103C7000154B0122C3F80425D3F80024002AFBD0F9
:103C80004FF010221221C2F80012D3F80024002AAB
:103C9000FBD04FF010231222C3F804220A4BD3F8B2
:103CA0000024002AFBD00022C3F80425D3F8002406
:103CB000002AFBD0D2E7054B054A1A6008BD00BFB9
:103CC00000C0004000ED00E000E0014030000020B6
:103CD0000090D0030649074A074B9B1A03DD043BBB
:103CE000C858D050FBDCFFF727FFFCF7D1FA0000E3
:103CF000E0BD000000000020FC060020FEE7FEE71B
:103D0000FEE7FEE7FEE7FEE7FEE7FEE7FEE7FEE78B
:103D100000000000000000000000000000000000A3
:103D20000000000000000000000000000000000093
:103D30000000000000000000000000000000000083
:103D400030B490F800F020F007016FF0000C10F094
:103D5000070491F820F040F048804FF000046FF025
:103D60000700D1E9002391F840F000F1080082FA41
:103D70004CF2A4FA8CF283FA4CF3A2FA8CF34BBB0C
:103D8000D1E9022382FA4CF200F10800A4FA8CF285
:103D900083FA4CF3A2FA8CF3E3B9D1E9042382FA53
:103DA0004CF200F10800A4FA8CF283FA4CF3A2FA68
:103DB0008CF37BB9D1E9062301F1200182FA4CF2A0
:103DC00000F10800A4FA8CF283FA4CF3A2FA8CF307
:103DD000002BC6D0002A04BF04301A4612BAB2FA29
:103DE00082F200EBD20030BC7047D1E9002304F02E
:103DF0000305C4F100004FEAC50514F0040F91F863
:103E000040F00CFA05F562EA05021CBF63EA0503FF
:103E100062464FF00004AAE7830730B547D0541E2E
:103E2000002A3ED0CAB2034601E0013C39D303F870
:103E3000012B9D07F9D1032C2CD9CDB205EB05251B
:103E40000F2C05EB054535D9A4F1100222F00F0C1B
:103E500003F1100EE6444FEA121C1A46C2E900555F
:103E6000C2E9025510327245F8D10CF1010214F08A
:103E70000C0F03EB021204F00F0C13D0ACF104038F
:103E800023F003030433134442F8045B9342FBD151
:103E90000CF003042CB1C9B21C4403F8011BA3426B
:103EA000FBD130BD64461346002CF4D1F9E703463C
:103EB0001446C0E71A46A446E0E700BFB1FA81F213
:103EC00052094FF48063520001F0C0BD844641EABC
:103ED000000313F003036DD1403A41D351F8043B82
:103EE00040F8043B51F8043B40F8043B51F8043BD4
:103EF00040F8043B51F8043B40F8043B51F8043BC4
:103F000040F8043B51F8043B40F8043B51F8043BB3
:103F100040F8043B51F8043B40F8043B51F8043BA3
:103F200040F8043B51F8043B40F8043B51F8043B93
:103F300040F8043B51F8043B40F8043B51F8043B83
:103F400040F8043B51F8043B40F8043B51F8043B73
:103F500040F8043B51F8043B40F8043B403ABDD2E2
:103F6000303211D351F8043B40F8043B51F8043B84
:103F700040F8043B51F8043B40F8043B51F8043B43
:103F800040F8043B103AEDD20C3205D351F8043B13
:103F900040F8043B043AF9D2043208D0D2071CBFDF
:103FA00011F8013B00F8013B01D30B880380604608
:103FB000704700BF082A13D38B078DD010F003037E
:103FC0008AD0C3F10403D21ADB071CBF11F8013BEE
:103FD00000F8013B80D331F8023B20F8023B7BE73D
:103FE000043AD9D3013A11F8013B00F8013BF9D268
:103FF0000B7803704B7843708B7883706046704702
:1040000070B50F4B0F4DAB42A3EB050607D0B610B2
:10401000002455F8043B01349847A642F9D806F02D
:1040200023FA094D094B5E1BAB424FEAA60606D0A8
:10403000002455F8043B01349847A642F9D870BDD6
:10404000EC060020EC060020EC060020F80600201C
:1040500000207047024A0349034800F057B900BFE7
:10406000600100202D740000400000200C4B4168CE
:10407000994210B5044601D003F0D8F9A168094B64
:10408000994202D0204603F0D1F9E168064B9942EB
:1040900004D02046BDE8104003F0C8B910BD00BFF1
:1040A000FC0F002064100020CC100020002070477E
:1040B0002DE9F8432A4C2B49DFF8BC90DFF8BC808F
:1040C000294FC4F83811002504230822294604F199
:1040D0005C00264EE360C4E90055C4E90455A560C0
:1040E0006566A561FFF798FE214B636708222946A4
:1040F00004F1C400C4E90749C4E90987C4E91A55B1
:10410000C4E91E552567C4F8CC50C4F88050E66257
:10411000FFF782FE174BC4F8DC30294604F1680330
:10412000082204F59670C4F88430C4E92298C4E9E2
:104130002476C4E93455C4E93855C4F8D850C4F8D5
:104140003451C4F8E850FFF767FE04F1D003C4E926
:104150003C98C4E93E76C4F8EC30BDE8F88300BF73
:10416000FC0F002055400000257600004976000035
:104170000900010012000200BD750000E575000095
:10418000F8B5254BD3F838310646002B3CD0234FE9
:10419000D7E90134013B04D51DE05A1C04F1680441
:1041A00019D0B4F90C50013B002DF6D11C4BE36043
:1041B000C4E90155C4E9045565662560A561082276
:1041C000294604F15C00FFF727FEC4E90C55C4E959
:1041D00011552046F8BD3D680DB12F46D8E74FF484
:1041E000D671304601F0E4FC044680B10423C0E9F6
:1041F00000530C302946A0604FF4D0722546FFF7DB
:104200000BFE3C602F46C3E7FFF752FFBFE70C23CE
:1042100038603360DDE700BFFC0F00206001002044
:104220000100FFFF436B03B17047044B044AD3F80E
:1042300038314263002BF7D13AE700BFFC0F002072
:104240006D400000704700BF704700BF024A03493D
:10425000002000F05BB800BF60010020514000006A
:10426000024A0349002000F051B800BF600100205D
:10427000AD40000008B50021044603F01FF9034BD0
:104280001B6803B19847204605F058FC3411002004
:10429000002301461A46184603F0DAB90EB400B5F9
:1042A00082B003AB816853F8042B019300F050F8FF
:1042B00002B05DF804EB03B0704700BF0FB400B567
:1042C000074983B004AB086853F8042B8168019355
:1042D00000F03EF803B05DF804EB04B0704700BF97
:1042E0003800002038B5074D074C2C1BA41005D012
:1042F000013C55F8043D9847002CF9D1BDE8384001
:1043000006F0B8B8FC060020F80600202DE9F843B6
:104310000746884616464FF00009D6E90154013D8C
:1043200010D4A389012B08D9B4F90E3001332146EA
:10433000384602D0C04749EA0009013D6B1C04F130
:104340006804EED13668002EE7D14846BDE8F88310
:104350002DE9F04FBFB01C460491914609930546E4
:10436000089003F079FF036810931846FFF7E8FC04
:104370000F901DB16B6B002B01F020800499B1F9F7
:104380000C204B6E900405D442F4005223F40053E9
:104390008A814B669F0401F13E81049AB2F90C3088
:1043A0001E0740F1DD801269002A00F0D98003F079
:1043B0001A030A2B00F0E3809FED817B0023CDE9F7
:1043C0002233CDE911338DED0C7B2EAA0E93219271
:1043D00092460693CB469BF80030002B00F0648198
:1043E0005C4604E014F8013F002B00F04181252BCE
:1043F000F8D1B4EB0B0540F03E812378002B00F0A0
:1044000053814FF000038DF86730002763780597DC
:1044100004F1010B4FF0FF390BF1010B9846A8F1A5
:104420002003582B00F24D81DFE813F083024B018B
:104430004B017E024B014B014B014B014B014B01E8
:10444000460278024B01510256024B017302590099
:104450005900590059005900590059005900590094
:104460004B014B014B014B014B014B014B014B01EC
:104470004B014B016800C6014B01C6014B014B01CA
:104480004B014B01AE024B014B01B8004B014B01FC
:104490004B014B014B01CE004B014B0152064B012E
:1044A0004B014B014B014B014B014B014B014B01AC
:1044B0004B01A0026A00C601C601C6019B026A0048
:1044C0004B014B018E024B01EA02BA00D902D40221
:1044D0004B01B3024B01D0004B014B017206A8F116
:1044E000300300221BF8018B02EB820203EB420235
:1044F000A8F13003092BF5D9059290E747F0100792
:10450000BD0640F1B281099B073323F007031A4629
:10451000596852F8083B09920A460029C0F2B7814F
:10452000B9F1000F9DF86740C0F2B88127F0800113
:10453000029153EA020140F0B0810121B9F1000F6C
:1045400040F05383002940F0F18417F001030793F2
:1045500000F0318530238DF8B7300DF1B70573E0E9
:10456000049D0898294602F0A7FD002841F05380D9
:10457000B5F90C3003F01A030A2B7FF41DAF049B2E
:10458000B3F90E30002BFFF617AF049908982346B5
:104590004A463FB0BDE8F04F01F0FAB847F01007C7
:1045A00017F0200200F05281099B073323F0070324
:1045B00019465A6851F8083B0991002114E000BFE0
:1045C000000000000000000047F0100717F0200274
:1045D00000F03281099B073323F0070319465A681C
:1045E00051F8083B099101210024B9F1000F8DF821
:1045F000674006DB27F08000029053EA02009DD05E
:10460000029F012900F04A81022900F0F8822EADB4
:1046100003F00701DB0843EA4273D208303153EA62
:104620000206284605F8011DF2D1FB0740F1F5828C
:10463000302900F0F2823023023805F8013C2EAB1D
:104640001B1A029707930546079B4B45B8BF4B467D
:10465000039300230B9314B1039B01330393029B39
:1046600013F002033FD0039B0233039302233AE08B
:10467000B4EB0B0518D0239B2B442393229B0133CF
:10468000072BCAE900B5229305DC0AF1080A069B4C
:104690002B440693B1E60499089821AA03F048F840
:1046A00030B90DF1B80AF2E7239B002B40F00487E4
:1046B000049B9B895B0600F1AE8706983FB0BDE87E
:1046C000F08FB8F1000FEFD000238DF86730012391
:1046D0008DF890800393079324AD4FF00009029763
:1046E000CDF82C904B46029A239C12F084020A9239
:1046F00005D1059A0399561A002E00F3FE829DF803
:1047000067208AB1229A0DF1670101320134CAF89B
:104710000010072A4FF0010123942292CAF80410D6
:1047200000F326830AF1080A83B1229A1AA90132FA
:104730000234CAF80010072A4FF002012394229293
:10474000CAF8041000F322830AF1080A0A9B802B9E
:1047500000F0CA81079BA9EB0306002E00F3068236
:10476000029BDE0500F15981079BCAF804301C4406
:10477000229BCAF800500133072B2394229300F3A5
:1047800065820AF1080A029B5A0705D5059B039A20
:104790009D1A002D00F30683DDE9052303998A4263
:1047A000ACBF9B185B180693002C40F03B820023A3
:1047B00022930DF1B80A0EE6099B073323F0070395
:1047C000B3EC027B55EC174B099325F0004315938E
:1047D0008DED147ADDE91401BD4B4FF0FF328DED04
:1047E0000C7B05F003FE002840F0F083DDE91401A6
:1047F000B74B4FF0FF3205F0DBFD002840F0E683B9
:10480000002200232046294605F0C8FD002840F07C
:104810003D869DF86740AF4D27F080030293AE4B75
:10482000B8F1470FD8BF1D464FF00009032303938B
:104830000793CDF82C900EE7099951F8043B0991A4
:1048400017F0100100F0BA830121CDE6099951F863
:10485000043B099117F010017FF4AFAE17F040024E
:104860003FF4ABAE0A469BB2A7E6099AFC0652F8A3
:10487000043B099206D4780604D543F3C0321146AE
:104880001BB24AE6DA1711460029BFF649AE5B4271
:1048900062EB42022D240121A7E6029F0A2B72F14E
:1048A000000180F0018530338DF8B7300123029785
:1048B00007930DF1B705C7E6099B53F8042B059242
:1048C000002A80F27383059A0993524205929BF85D
:1048D000003047F004079FE55A4612F8018BB8F103
:1048E0002A0F00F02287A8F13003092B98BF4FF060
:1048F000000900F2A18612F8018B09EB890903EB8C
:104900004909A8F13003092BF5D949EAE979934619
:1049100085E59BF8003047F080077DE52B238DF877
:1049200067309BF8003077E59BF8003047F00107CF
:1049300072E59DF867209BF80030002A7FF46CAD8B
:1049400020228DF8672067E59BF800306C2B03BFB1
:104950009BF8013047F020070BF1010B47F01007DF
:104960005AE59BF8003047F0400755E5099B0022C7
:104970008DF8672053F8042B099301238DF89020BC
:104980000393079324ADA8E69BF8003047F008078F
:1049900042E5099C54F8045B00268DF86760002D01
:1049A00000F0C583B9F1000FC0F21A854A463146BE
:1049B000284600F025FF002800F03286431B0793AD
:1049C00023EAE3730994B1469DF867400297039385
:1049D0000B9640E69BF8003047F020071CE5099A4B
:1049E00052F8043B099247F63002ADF868203B4A82
:1049F000119247F00207002202214FF07808F3E5F8
:104A0000BD0640F15C83099B069A1B681A60D217A9
:104A10005A60099B04330993DDE4B8F1650F40F354
:104A20002181DDE90C010022002305F0ADFC002806
:104A300000F0F581229B2A4ACAF800200133013494
:104A40000122072B23942293CAF8042000F3A9849F
:104A50000AF1080A1B9B0E9A934280F2A2820F9BD6
:104A6000109A1C44CAE90023229B23940133072B8C
:104A7000229300F350830AF1080A0E9B5D1E002D5D
:104A80007FF781AE102D229B164F40F3D480DDF8C6
:104A90002080DDF81090102605E00AF1080A103D8C
:104AA000102D40F3C88001331034072BCAE900767B
:104AB000CDE92234F1DD21AA4946404602F038FE14
:104AC00000287FF4F5ADDDE922340DF1B80AE6E700
:104AD000FFFFEF7F20BA00001CBA000040BA0000C0
:104AE0005CBA000040BB0000059B039A9E1A002E92
:104AF0007FF730AE102E229BAF4F24DD5246214669
:104B0000AA46089C049D04E0103E102E02F1080203
:104B100016DD013310311020072BCDE9223117604B
:104B20005060F1DD21AA2946204602F001FE00284E
:104B30007FF4BEAD103E102EDDE922312EAAE8DC56
:104B400055460C46924601333444072BCDE92234B6
:104B5000CAF80070CAF8046000F33584079BA9EB1B
:104B60000306002E0AF1080A7FF7FAAD102E229BE9
:104B7000914F2CDD52462146B246089C2E464FF0FE
:104B80001009049D06E0AAF1100ABAF1100F02F113
:104B9000080218DD013388481031072BC2E90009EB
:104BA000CDE92231EFDD21AA2946204602F0C0FDE1
:104BB00000287FF47DADAAF1100ABAF1100FDDE9EB
:104BC00022312EAAE6DC35460C4656469246013383
:104BD0003444072BCDE92234CAF80070CAF80460C7
:104BE00000F3D2810AF1080ABAE50129029F4FF0C9
:104BF00000033FF458AE02291A467FF408AD11981D
:104C00002EAD03F00F011B09415C05F8011D43EABD
:104C10000273120953EA0201F3D12EAB5B1B029718
:104C2000079311E50499089821AA02F081FD002854
:104C30003FF4BDAD3CE501332C44072BCAF80070AE
:104C4000CAF80450CDE922347FF79BAD0499089847
:104C500021AA02F06DFD00287FF42AAD239C0DF1FE
:104C6000B80A90E50E9B229E012B04F1010406F187
:104C700001060AF1080840F33E810123072ECDE921
:104C80002264CAF80050CAF8043000F3F3820F9B84
:104C9000109A01361C44072EC8E90023CDE922648E
:104CA00000F3F58208F108080E9BDDE90C0103F121
:104CB000FF390022002305F067FB002840F03B810C
:104CC000013601354C44072ECDE92264C8F8005066
:104CD000C8F8049000F31D8108F10808129BC8F879
:104CE000043001361C44072E1DABCDE92264C8F800
:104CF0000030ABDC08F1080A45E5102E229A2F4F50
:104D000028DD51462046CA46089C1393A946049DB7
:104D100004E0103E102E01F1080116DD01321030C2
:104D20001023072ACDE922200F604B60F1DD21AA74
:104D30002946204602F0FCFC00287FF4B9AC103E66
:104D4000102EDDE922202EA9E8DC139B4D460446F7
:104D5000D1468A4601323444072ACDE92224CAF8D2
:104D60000070CAF8046000F3D9820AF1080AC6E4A8
:104D700004990898139321AA02F0DAFC00287FF422
:104D800097AC239C139B0DF1B80ACDE404990898C5
:104D900021AA02F0CDFC00287FF48AAC239C0DF1FF
:104DA000B80AD3E4102D229B044F25DDDDF82080C6
:104DB000DDF81090102608E040BB000030BB00007A
:104DC000103D102D0AF1080A16DD01331034072BAF
:104DD000CAE90076CDE92234F2DD21AA49464046EF
:104DE00002F0A6FC00287FF463AC103D102DDDE935
:104DF00022340DF1B80AE8DC01332C44072BCAE950
:104E00000075CDE922347FF7C7AC0499089821AA30
:104E100002F08EFC00287FF44BAC239CBCE41B9971
:104E2000002940F38A820B9F0E9B9F42A8BF1F461A
:104E3000002F0BDD229B01333C44072BCAE90057AE
:104E40002394229300F3C9830AF1080A0B9E002FD2
:104E5000A8BFF61B002E00F374811B9B0E9A934291
:104E6000C0F29E81029AD00700F19A810E9A0B99A6
:104E7000D31A561A9E42A8BF1E46002E0EDD229A55
:104E8000CAF8046001320D443444072ACAF80050BD
:104E90002394229200F3AD830AF1080A002EACBFDE
:104EA0009D1B1D46002D7FF76EAC102D229BB84F29
:104EB0007FF7C1AEDDF82080DDF81090102605E008
:104EC0000AF1080A103D102D7FF7B5AE01331034FA
:104ED000072BCAE90076CDE92234F1DD21AA494643
:104EE000404602F025FC00287FF4E2ABDDE92234E5
:104EF0000DF1B80AE6E7029BD9073FF5BEAE0123E4
:104F0000072ECDE92264CAF80050CAF804307FF7B2
:104F1000E5AE0499089821AA02F00AFC00287FF463
:104F2000C7ABDDE922640DF1B808D7E6CDF81C90D7
:104F30002EADFFF789BB0E9B012B7FF7CFAE112B58
:104F4000934F40F38982DDF820A0102507E008F197
:104F50000808A9F11009B9F1100F40F37D8201365C
:104F60001034072EC8E90075CDE92264EFDD0499FD
:104F700021AA504602F0DCFB00287FF499ABDDE962
:104F800022640DF1B808E4E70499089821AA02F018
:104F9000CFFB00287FF48CAB239C0DF1B80AFFF700
:104FA000DFBB029BDD077FF5EEAB58E509939BF86D
:104FB0000030FFF731BA2EADFFF746BB17F04002C5
:104FC0001CBF0A469BB20121FFF70EBBDDE90C01B5
:104FD00002460B4605F00AFA002840F06E83B9F14C
:104FE000FF3F28F0200600F01383472E04D1B9F1CB
:104FF000000F08BF4FF00109DDE90C0147F4807292
:1050000000290292C0F2C6829DED0C7B8DED167BCD
:1050100000230A93B8F1650F00F0998200F3D5825E
:10502000B8F1450F00F093821FAB01931CAB0093C6
:1050300002219DED160B08981BAB4A4601F0FAF8C9
:10504000F907054640F1C08000EB0904DDE91601CF
:105050000022002305F098F9002840F029821F9BC8
:10506000A34206D230215A1C1F9219701F9B9C42EA
:10507000F9D81B9A0B925B1B472E0E9300F0A98068
:10508000B8F1660F40F0BC800B9A07F00103002ACC
:1050900043EA090340F35783002B40F034830B9B12
:1050A000039307934FF066080A9B002B00F06C8275
:1050B0002D238DF867304FF00009FFF7CDBAFC06BD
:1050C0007DD478067BD5099B069A1B681A80A0E4DC
:1050D000304B119317F0200200F0BE80099B07337C
:1050E00023F0070319465A6851F8083B0991F9075C
:1050F00040F1AF8053EA020100F0AB8030218DF81F
:1051000068108DF8698047F002070221FFF76CBA3A
:10511000214B1193DEE70499089821AA02F008FBBD
:1051200000287FF4C5AA239C0DF1B80AA5E44B46DC
:10513000062B28BF0623194D079309940393FFF705
:10514000CCBA102E229B124F40F393812246DDF8F9
:105150002090049C4FF0100805E00AF1080A103E68
:10516000102E40F3858101331032072BCAE90078F5
:10517000CDE92232F1DD21AA2146484602F0D8FAD3
:1051800000287FF495AADDE922320DF1B80AE6E79E
:1051900040BB00002CBA000040BA000054BA000026
:1051A0000F9A10991444CAE90012229A23940132EA
:1051B000072A229200F3FC810AF1080A56E6099BAD
:1051C000069A1B681A6024E41F9B1B1A0E931B9BF4
:1051D0000B930B9BDA1C11DB99450FDB0E9B0B9A93
:1051E000934200F34F82FE070B9B00F1778223EA84
:1051F000E372039207934FF0670855E7A8F102089E
:105200000B9B8DF87480591E00291B91B6BFC3F10A
:1052100001012B232D2309298DF8753000F35381CB
:10522000302330318DF8763004238DF877101293C7
:105230000E9A129B012A1344079340F31A82079B8C
:105240000F9A1344079323EAE373039300230B930A
:105250002AE70221FFF7C8B9099951F8043B0991DF
:1052600017F010017FF443AF17F040021CBF9BB250
:105270000A463CE70499089821AA02F059FA002846
:105280007FF416AADDE922640DF1B808FFE4049961
:10529000089821AA02F04CFA00287FF409AADDE957
:1052A00022640DF1B808FFE4CDE90287BD4E2EADB2
:1052B0004FF0050E991841F10001A6FB010727F0F8
:1052C000030000EB9700091A581A9846944662F1B9
:1052D00000034FF0CC3202FB00F206FB0322A0FBDE
:1052E000063003F001070244A7FB0E074018B8F18F
:1052F0000A0F4FEA530300F130007CF1000C43EA3F
:10530000C27305F8010D4FEA5202D3D2DDE90287DC
:105310002EAB5B1B02970793FFF796B90499089889
:10532000139321AA02F004FA00287FF4C1A9239C58
:10533000139B0DF1B80AFFF7E2B9229B9A4ACAF80B
:105340000020013301340122072B23942293CAF851
:10535000042000F3A0800AF1080A002946D1029B2C
:105360000E9A03F0010313433FF40DAA0F9B10990B
:105370001A19CAE90013229B23920133072B2293A7
:1053800000F3CB800AF1080A0E99CAF800500133E5
:105390008C18072BCDE92234CAF804107FF7F1A945
:1053A00054E40499089821AA02F0C2F900287FF475
:1053B0007FA9239C0DF1B80AFFF74CBB0898FEF7B4
:1053C00031FFFEF7DBBF0499089821AA02F0B0F97B
:1053D00000287FF46DA9239C0DF1B80AFFF7BAB934
:1053E0002846FEF7ADFC0346FFF7E9BA0F9B10987D
:1053F0001A19CAE90003229B23920133072B229337
:1054000000F38B800AF1080A0029BDDA4E42103100
:10541000664F80F21681DDF82080DDF810901024B0
:1054200005E00AF1080A103E102E40F30A8101330C
:105430001032072BCAE90074CDE92232F1DD21AA2E
:105440004946404602F074F900287FF431A9DDE9AD
:1054500022320DF1B80AE6E701364C44072ECDE9B9
:105460002264C8F80070C8F804907FF735AC50E5A6
:10547000144601333444072BCDE92234CAF80070B6
:10548000CAF8046057DC0AF1080AE6E42D248DF816
:105490006740FFF7C0B90499089821AA02F048F9BB
:1054A00000287FF405A91B99239C0DF1B80A54E745
:1054B0001B9A0B922346DEE50499089821AA02F074
:1054C00037F9FFF7F5B80DF18304364E2346184639
:1054D000A6FB0123DB0803EB8302A1EB420230327F
:1054E00000F8012C0A46632A194600F1FF33EEDC6E
:1054F000303103F8011C831EA34280F021810DF19D
:10550000750213F8011B02F8011FA342F9D13EAB4B
:10551000181AA0F1710312938AE60499089821AA37
:1055200002F006F900287FF4C3A8DDE922321B99B6
:105530000DF1B80A68E70499089821AA02F0F8F872
:1055400000287FF4B5A8239C0DF1B80A85E409F181
:10555000010303930221039C08981FAB01931CAB2A
:10556000009322469DED160B1BAB00F063FEB8F1D5
:10557000660F054604447FF469AD2B78302B00F0AC
:105580008E801B9B1C4461E5DDF828909DF86740E8
:10559000FFF761B801F1004317932D2316900A938A
:1055A00038E500BFCDCCCCCC5CBA000040BB0000DD
:1055B0000499089821AA02F0BBF800287FF478A883
:1055C0001B9B239C0DF1B80A50E4B8F1660F7FF4E1
:1055D0002BADCDF80C900321BDE70499089821AAC2
:1055E00002F0A6F800287FF463A8239C0DF1B80A06
:1055F0002CE40499089821AA02F09AF800287FF474
:1056000057A81B9B0E9A239CD31A0DF1B80A45E4A8
:105610004FF00609F0E44FF0FF330693FFF74DB863
:105620000994CDF80C90CDF81C909DF86740029736
:1056300081460B90FFF70FB893464FF00009FEF735
:10564000EEBE01333244072BCDE92232CAF8007096
:10565000CAF804607FF796AE0499089821AA02F070
:1056600067F800287FF424A8DDE922320DF1B80A9A
:105670008AE617F001020B927FF4E1AD23EAE373AF
:10568000039311E5DDE90E3213440B9A0793002AC8
:105690002DDD23EAE37303934FF0670804E5DDE9AA
:1056A00016010022002304F06FFE002837D01B9B58
:1056B0000B931C44631B0E93E6E40D9B2B4D002BB8
:1056C000B8BF2D2427F080030293A8BF9DF8674040
:1056D000274BB8BF8DF86740FFF7A2B80F9A134465
:1056E000079323EAE37303934FF06708DCE40B9B13
:1056F000079AC3F101031A4422EAE2730792039363
:105700004FF06708D0E40F9B09EB030808EB020396
:10571000079323EAE37303934FF06608C4E4039B03
:10572000C3F101031B931C4490E409999BF80130D9
:1057300051F8049B0991934649EAE979FEF76CBE5A
:105740000223129374E52BB9012303934FF06608EB
:105750000793A9E40F9B03F1010808EB09030793E2
:1057600023EAE37303934FF066089DE428BA000030
:1057700024BA000010B4054C8446134620685DF836
:10578000044B0A466146FEF7E3BD00BF3800002027
:1057900070B50C468989ADF58D6D21F00201ADF82B
:1057A0000C101AA9009104914FF4806102910591A7
:1057B000616E1991E189ADF80E10E1690791616A96
:1057C00009910021069169460646FEF7C1FD051EB6
:1057D00007DB6946304600F0FFF8002818BF4FF09D
:1057E000FF35BDF80C305B0603D5A38943F04003B9
:1057F000A38128460DF58D6D70BD00BF000000002F
:1058000001F0FF01102A2BDB10F0070F08D010F871
:10581000013B013A8B422DD010F0070F42B3F6D175
:10582000F0B441EA012141EA014122F007047FF08E
:1058300000070023F0E80256083C85EA010586EAE5
:10584000010685FA47F5A3FA87F586FA47F6A5FA21
:1058500087F68EB9EED1F0BC01F0FF0102F007022D
:1058600032B110F8013B013A83EA010313B1F8D1D8
:105870000020704701387047002D06BF35460338B9
:10588000073815F0010F07D1013015F4807F02BFF2
:10589000013015F4C03F0130F0BC0138704700BF43
:1058A000B1F90C202DE9F04116070C4680464ED484
:1058B000496842F400630029A38163DDA56A002DD5
:1058C00042D0002112F48052D8F80060C8F80010CD
:1058D000E16964D101234046A847451C02466ED0C9
:1058E000B4F90C30A56AE169580705D56368D21A86
:1058F000236B0BB1E36BD21A00234046A847431C2D
:105900004FD1D8F80010B4F90C301D2940D8314AD5
:10591000CA40D7073CD52269226023F40062A281E5
:10592000DD044FF00002626001D5002945D0216BF3
:10593000C8F8006041B104F14003994202D04046EA
:1059400001F078FC002323630020BDE8F0810E699C
:10595000002EF9D00D680E6092070CBF4B69002332
:10596000AD1B8B600BE02B463246E169676A40460F
:10597000B847B0F1000CA5EB0C05664406DD002D20
:10598000F1DCE1E7E16B002998DCDDE7B4F90C30EC
:1059900043F04003A3814FF0FF30BDE8F081226D5A
:1059A000A2E7B4F90C302269226023F40062A281DC
:1059B000DB044FF000026260B9D52065B7E7D8F884
:1059C0000030002B8CD01D2B01D0162BDED1C8F857
:1059D0000060B9E70100402010B5044682B008B16C
:1059E000436B53B1B1F90C0008B902B010BD2046A9
:1059F00002B0BDE81040FFF753BF0191FEF712FC63
:105A00000199EFE7A0B138B50C4B1D6804460DB104
:105A10006B6B4BB1B4F90C0000B938BD2146284678
:105A2000BDE83840FFF73CBF2846FEF7FBFBF1E737
:105A3000034A04490448FEF769BC00BF380000204F
:105A400060010020D9590000400000202DE9F043FA
:105A5000564CD4F8008083B004460E4617461D46C7
:105A6000B8F1000F04D0D8F83430002B00F0878054
:105A7000022F05D0012F00F28680002DC0F2838016
:105A800021464046FFF7A8FF216B41B104F14003D6
:105A9000994202D0404601F0CDFB00232363B4F9C4
:105AA0000CC000231CF0800FA361636047D12CF46D
:105AB0004A6C2CF0030C022FA4F80CC04DD001ABA3
:105AC0006A462146404602F03DFCA3891843A08166
:105AD00005B306B3D8F8343053B3009AB4F90C3098
