:10000000000002208D4D0000B54D000025130000BA
:10001000B94D0000BB4D0000BD4D000000000000C8
:10002000000000000000000000000000BF4D0000C4
:10003000C14D000000000000C34D0000C54D000090
:10004000152C0000C74D0000B12E000059380000EB
:1000500069380000C74D0000152D0000E533000091
:100060005536000065360000C74D0000C74D000042
:10007000C74D0000C74D0000C74D0000C74D000030
:10008000C74D0000F90D0000C74D0000C74D00002E
:10009000950E0000C74D0000C74D0000C74D000081
:1000A000C74D0000C74D0000C74D0000C74D000000
:1000B000AD330000C74D000000000000000000004C
:1000C000C74D0000BD330000C74D0000A53500003E
:1000D000C74D0000C74D0000C74D0000C74D0000D0
:1000E000C74D0000000000000000000000000000FC
:1000F00000000000C74D000000000000C74D0000D8
:1001000000000000000000000000000000000000EF
:1001100000000000000000000000000000000000DF
:1001200000000000000000000000000000000000CF
:1001300000000000000000000000000000000000BF
:1001400000000000000000000000000000000000AF
:10015000000000000000000000000000000000009F
:10016000000000000000000000000000000000008F
:10017000000000000000000000000000000000007F
:10018000000000000000000000000000000000006F
:10019000000000000000000000000000000000005F
:1001A000000000000000000000000000000000004F
:1001B000000000000000000000000000000000003F
:1001C000000000000000000000000000000000002F
:1001D000000000000000000000000000000000001F
:1001E000000000000000000000000000000000000F
:1001F00000000000000000000000000000000000FF
:100200000348044B834202D0034B03B118477047A5
:10021000FC060020FC060020000000000548064BFC
:100220001B1AD90F01EBA301491002D0034B03B1F4
:1002300018477047FC060020FC0600200000000064
:1002400010B5064C237843B9FFF7DAFF044B13B11E
:100250000448AFF300800123237010BDFC0600208A
:100260000000000030CF000008B5044B1BB104496A
:100270000448AFF30080BDE80840CFE7000000006D
:100280000007002030CF0000A3F5803A704700BF80
:10029000154B002B08BF114B9D46FFF7F5FF0021C2
:1002A0008B460F461148124A121A04F015FE0C4BE9
:1002B000002B00D098470B4B002B00D09847002014
:1002C000002104000D000B4805F070F804F026FF33
:1002D0002000290000F010F805F05AF8000008008E
:1002E000000000000000000000000220FC060020CA
:1002F0007813002001540000F0B54248424D434EAF
:10030000434F85B005F068F8424B0FCB6C4684E84C
:100310000F001A222023CDE90023214600233E4866
:100320008DF80C3002F0C8FB3B4800F01DF93A484C
:1003300000F0FCF8394A3A49002808BF114639480C
:1003400005F04AF800F0FEFE00F082FA00F064F9D1
:100350000D2000F034F90E2000F031F90C2000F0EF
:100360002EF945F001050F2000F030F998B1304624
:1003700005F032F800F08EF90421384600F002FA58
:1003800000F094FA0E2000F033F90C2000F030F960
:100390000D2000F02DF900F099FA044600F09AFAC9
:1003A000032816D91A4A631E033412F8011B13F8E6
:1003B000010F884214D00E2000F01AF90C2000F032
:1003C0001EF90D2000F01BF900F070FA164805F038
:1003D00003F864244FF47A40A847013CFAD1C2E7FD
:1003E000A342E2D10E2000F00AF90C2000F000F93F
:1003F0000D2000F004F90D4804F0EEFF00F04AF97A
:10040000E7E700BFAEB5000050C70000CCB5000064
:10041000DBB5000070C7000058C70000A0B50000A1
:10042000A4B50000BEB50000E0B50000E9B50000CD
:1004300010B58AB00DF10F0306934EF20103ADF82B
:100440001C30012300248DF80F008DF81E300F485A
:1004500000940DF1170308934EF20113ADF8243008
:10046000214600688DF81740022306AA8DF8264021
:1004700002F08EFB014628B1054804F0ADFF20468E
:100480000AB010BD9DF81700FAE700BF480700202A
:10049000F5B500007FB58DF80C008DF80D1003AB9D
:1004A00000210B48009104934EF20203ADF8143082
:1004B00000688DF81610012304AA02F069FB0146BA
:1004C00010B1044804F088FF07B05DF804FB00BFDA
:1004D00048070020F5B5000038B50C460546FFF783
:1004E000A7FF072C94BF00230123A4EBC30401231F
:1004F000A34020EA0301C9B22846BDE83840FFF70F
:10050000C9BF38B50C460546FFF792FF072C94BFCC
:1005100000230123A4EBC3040123A34040EA030109
:10052000C9B22846BDE83840FFF7B4BF10B586B061
:100530000DF10F03002404934EF20113ADF81430B3
:1005400021460094012304AA8DF8164002F020FBF6
:10055000014628B1034804F03FFF204606B010BD15
:100560000120FBE7F5B5000038B50A4B0A4D1860CD
:1005700012217D20FFF78EFF34217D20FFF78AFFB7
:100580000A2445F001054FF47A40A847013CFAD10E
:10059000012038BD4807002080C7000038B5082872
:1005A0000446014635BF072506250F200E20FFF71C
:1005B000A8FF21462846BDE83840FFF7A2BF08281B
:1005C000014634BF0F200E20FFF786BF082810B564
:1005D000044634BF11201020FFF72AFF072C94BFD8
:1005E00000230123A4EBC304204100F0010010BD4F
:1005F0000828014634BF11201020FFF76DBF0828DE
:10060000014634BF11201020FFF77BBF09B1FFF76F
:10061000F6BFFFF7EDBF00001FB5134A1068516821
:1006200001AB03C39068186001A900220F4802F0D3
:100630004FFD0F4B0F4840F2CA22C3F808250E4B5E
:1006400040F265121A8000210C4A00F0C3FD0C4BE9
:100650000C4A1A600C4A002313600C4A13600C4ABF
:10066000137005B05DF804FB20C9000088C70000C6
:1006700000C001401CC9000058070020B10600005E
:1006800000000020CABF00005407002050070020CF
:100690004C07002008B50448002102F063FEBDE8C5
:1006A0000840024800F0EEBD88C700005C0700204B
:1006B00038B501212A4802F055FE2A482A4B016824
:1006C0001B68994203D3BDE83840FFF7E3BF274BCF
:1006D0001B685A5CA2F16103192B1AD8203AD2B2D6
:1006E000234C0B2313FB0243224A234C134422784E
:1006F0009D7A954219D80131016000234FF4B471FD
:100700002370BDE838401D48002201EB411100F084
:1007100073BDA2F14103192BE2D9A2F13003092BD9
:100720001BD80B236FF0F104DCE713445A7852B95D
:1007300013490B480223012202F0A2FD78212378FD
:100740000133DBB2DCE7012AF8D10D49044802236A
:1007500002F096FD4FF4B471F1E700239B7AFFDEBF
:1007600088C7000050070020540700200000002028
:1007700035FDFFFF90C700004C0700205C070020FC
:1007800004000020054B064A1860064B1960002340
:100790001360054A1370FFF78BBF00BF00000020F5
:1007A00050070020540700204C0700202DE9F0419D
:1007B000204E214F002546F0010617F8018B00213D
:1007C0004046FFF723FF4FF42070B0470420FFF7A7
:1007D000FDFE40B10520FFF7F9FEA8B10620FFF7A6
:1007E000F5FE98B90220154B05EB450213441C5C3D
:1007F00001214046FFF70AFF54B90135042DDCD131
:100800000F4B1C70BDE8F0810120ECE70024EFE7FE
:100810000B4B1A78A242F5D00A4A1C7013780A488A
:10082000591C1170094AD4542146BDE8F04104F026
:10083000D3BD00BF30C9000042C9000036C9000066
:100840007C0700207D07002001B600007E07002005
:1008500070B5124E002416F8015B2846FFF7AFFE74
:10086000013401212846FFF7D1FE042CF3D12046A4
:10087000FFF794FE0520FFF791FE0620FFF78EFE9E
:10088000074A0848012100F0A5FC002240F6B831D3
:10089000054800F0B1FC012070BD00BF42C9000056
:1008A000AD07000048C9000088070020054A0A2358
:1008B0000021013B13F0FF0302F8011BF9D1024AAA
:1008C000137070477E0700207D07002000487047A6
:1008D0007E070020014B1878704700BF7D0700207D
:1008E00010B50368292B044604D9074940F2CD10FE
:1008F00000F032FD23681F2B83BF03F01F0323602A
:1009000002484FF0A04010BD12B600000003005096
:1009100007B5019001A8FFF7E3FF019A0123934077
:10092000C0F80C3503B05DF804FB07B5019001A8D1
:10093000FFF7D6FF019A01239340C0F8083503B0B2
:100940005DF804FB38B5054D044645F001054FF44C
:100950007A40A847013CFAD138BD00BFC0C90000A9
:100960002DE9F3413D4F3E4E0524022517F8013B8A
:10097000019301A8FFF7B4FF019B03F5E07340F872
:10098000235001A816F8013B0193FFF7A9FF019B33
:1009900003F5E073013C40F82350E7D1152501A889
:1009A0000195FFF79DFF019B03F5E07340F20326DD
:1009B00040F82360132401A80194FFF791FF019BE5
:1009C00003F5E07340F2031840F823601C2601A8E9
:1009D0000196FFF785FF019B03F5E0731E2740F8A2
:1009E000238001A80197FFF77BFF019B03F5E073CC
:1009F00040F823802846FFF798FF2046FFF795FF31
:100A00003046FFF785FF3846FFF782FF1C20FFF7CF
:100A10007FFF1E20FFF77CFF4FF4FA70FFF792FF75
:100A20001C20FFF782FF1E20FFF77FFF3220FFF719
:100A300089FF1C20FFF76CFF1E20FFF769FF4FF4B2
:100A4000FA70FFF77FFF1C20FFF76FFF1E20FFF7F4
:100A50006CFFFA20FFF776FFD8E700BFCBC9000094
:100A6000C6C9000073B506460D46144672B601F0BD
:100A7000F3FB01F033FA0028FBD1124804F0ACFC80
:100A800044F201039E420AD044F202039E4214D172
:100A9000228861680C4804F09FFCFFF761FFA6689C
:100AA000304601F0FBFE236801950093024663681F
:100AB0000648314604F090FCEFE72946044804F06C
:100AC0008BFCEAE755B600006EB6000089B6000060
:100AD000B3B600002DE9F743054601F0BDFB01F078
:100AE000FDF90028FBD12A4B2A4C9E6A2A4BE41AB6
:100AF000E408240444F00104002D44D0AA692749E5
:100B0000204601F05BFBEB680193AB680093D5E9ED
:100B100000232349204601F066FBEB690093D5E9E9
:100B200004232049204601F052FB194BDB6A990748
:100B300003D51D49204601F03DFBDFF87C80DFF83E
:100B40007C900025012707FA05F3334206D058F8B8
:100B500025201AB14946204601F030FB01351A2DF7
:100B6000F1D1320605D50A4B10495A6B204601F0E7
:100B700025FB330405D5064B0D499A6B204601F041
:100B80001DFBFFF7EDFE0B49204601F013FBCCE700
:100B900000ED00E034D00000E4CF0000CDB600004E
:100BA000E2B6000017B7000072B70000C1B700003E
:100BB000E1B700003FB700004CC90000B6B7000025
:100BC00038B50E4B1B680021986804F0D7F94FF434
:100BD0000041002001F028F918B1094A142100F061
:100BE000BBF8084D01F04CF80A2445F001054FF41C
:100BF0007A40A847013CFAD138BD00BF3800002038
:100C0000B1BC0000D0C900007047000007B5044B1C
:100C10000093044A402300F0D1FF03B05DF804FBC9
:100C20007D0C0000AA07002030B50F4D0FCD89B014
:100C30006C460FC495E80F0084E80F0006222823B5
:100C4000CDE9002309480A4B06930022694600F0CB
:100C500055FD18B1074A462100F07EF8064B0022E8
:100C60001A7009B030BD00BFE4C9000014000020B4
:100C700000509D001ABD0000A807002038B50E489E
:100C80000E4C0F4D002323700378EB5CD2B273B18E
:100C9000043003F077FE18B10A4A562100F05CF8E0
:100CA000094B1B7813B12378002BFCD038BD0C30D6
:100CB00003F020FBEFE700BF14000020A90700208D
:100CC000200900201ABD0000A807002008B5084828
:100CD000084A0378D35C33B1043003F0D1FDBDE89A
:100CE0000840FFF7A1BF0C3003F098FAF7E700BF08
:100CF0001400002020090020FFF796BF10B5084817
:100D0000D4B20378074AD35C224623B1043003F0FF
:100D100039FE204610BD0C3003F0ECFAF9E700BFB5
:100D2000140000202009002008B50948094A03786A
:100D3000D35C012243B1043003F09CFE002814BFB1
:100D40004FF0FF30012008BD0C3003F043FBF5E706
:100D5000140000202009002000B583B0029000910B
:100D6000019244F2010071466A46FFF77BFE03B030
:100D700000BD0000094B5A7899780132D2B29142F5
:100D800008BF0022197891421FBF02705A781821BB
:100D900001FB023014BF043000207047000800201F
:100DA00037B5044600200D4600F09CFA0DF107000F
:100DB000FFF7E0FF90B10A4B9DF8072005704460F3
:100DC0005A700024002000F09DFA24B9054B4FF41E
:100DD0008012C3F80021204603B030BD0424F1E79F
:100DE0000008002000E100E0024B4FF43C6043F0BB
:100DF0000103184710CA0000F8B51F491F4B002512
:100E0000C1F84051C1F84451C1F84851C1F84C51A2
:100E1000C1F80051C1F804511B684BB3D1F8044527
:100E200017490968641A24F07F442F461A68A242C1
:100E300009D8A41A15441A7CDE691AB1D3E9052031
:100E40001F749047AEB90F4A0F4B11781B788B4235
:100E500005D10133DBB2022B08BF002313701278D7
:100E60000A4B43F822500A4B4FF48012C3F800217A
:100E7000F8BD3346DAE700BF00100140FC07002050
:100E8000F8070020EC070020ED070020F007002005
:100E900000E100E02DE9F74F9F49A04A0B78127856
:100EA0009F4D9A4255D00133DBB2022B08BF00237D
:100EB0009C4A0B709C49166851F82300331823F0A4
:100EC0007F43136000222B6817461446944613B9DB
:100ED00042B12B6006E01968814228D902B12B602B
:100EE000091A19604FF0010B2B68DFF8509200933C
:100EF0004FF0000A002F46D03C46FF69894B6668D8
:100F000019688A4AA368701A20F07F40904200F264
:100F1000E180034401202074286823600021C4E993
:100F20000111E161002840F0DD802C60E2E7401A09
:100F30000C44D968D3F81CE0C3F800C031B13219B1
:100F400022F07F42C3E90121DF611F46734601227F
:100F5000BDE70027BB46C7E799F802402E68431C4F
:100F6000DBB29C4208BF002389F80030182303FB42
:100F7000009003798468022B6AD0032B00F09480E0
:100F8000012B00F0948099F8000099F80130834219
:100F9000E2D12B68BAF1000F05D1009A9A4202D132
:100FA000BBF1000F43D0002B41D0D3F800A0604D1F
:100FB0005C4BD5F804751C68DFF884813E1B98F8FB
:100FC000003026F07F4603369BB94FF48033C5F8D6
:100FD0004433C5F80433574B4FF40032C3F8802133
:100FE0001A604FF00109C5F80090FFF7FDFE88F880
:100FF0000090B2452CBF5444A41924F07F44C5F896
:101000004045D5F80435DB1B23F07F43E41B033355
:1010100024F07F44A3420AD9D5F80435C5F84035F9
:10102000FFF7E2FE434B4FF40032C3F80021424B7E
:1010300000221A7003B0BDE8F08F44450BD0404643
:10104000D8F81C80B8F1000FF7D1002323749AE779
:10105000B0463046F6E784420DD1F3692B6053B9B0
:101060003349019001228A602E490B60324B1A707D
:10107000FFF7BAFE0198D8F81C20D8F80030C261FA
:1010800012B111680B4413602B68B34218BF4FF0C4
:10109000010ADAE73074F6690123002EFAD1002B39
:1010A0003FF471AF2E606EE700231846F5E7267C0B
:1010B000002E7FF468AFC16861600369A360436973
:1010C000E3608369A3611C4B1B78002B18BF31467A
:1010D000616013E7891B21F07F41994234BF5B1A9D
:1010E000002317E70168994213D3C91A0160E06130
:1010F0001BE79B1BCE6908463EB131460E68B342E2
:10110000F7D8F61A0E600E4601462360E661CC6100
:10111000F0E60146F2E700BFED070020EC070020F3
:10112000FC070020F8070020F0070020FEFF7F00EA
:101130000010014000E100E0EA0700200008002064
:10114000EB070020F8B51B4E4FF40033C6F8803093
:10115000BFF34F8FBFF36F8F174D184F4FF480338E
:101160000124C5F84833C5F808336C60FFF73CFE2E
:10117000AC6000243C60FFF737FE114B1C70114B34
:101180000B221C809A70104B1C60104B1C70104B73
:101190004FF480121C70E023C6F8802186F81433C7
:1011A0003260C5F8084586F81133D5F804353B6040
:1011B0002046F8BD00E100E000100140F8070020E3
:1011C000EB07002000080020FC070020ED070020AE
:1011D000EC070020074B9B784BB132B128B1036874
:1011E000187C20B959745A6170470720704708204D
:1011F000704700BF000800202DE9F3411D4FBB7868
:1012000004460D4616469BB390B31B4B4A1F9A42A9
:101210002CD8436963B3437C0020012B0CBF884664
:101220004FF0000800F05EF80DF10700FFF7A2FD97
:10123000D0B101230370114B4460D3F80435C0E9E9
:101240000486C0E902359DF807307B700024002039
:1012500000F058F824B90A4B4FF48012C3F800216B
:10126000204602B0BDE8F0810424F0E70724F7E748
:101270000824F5E700080020FAFFFF0000100140F5
:1012800000E100E0064A92783AB130B1426922B1F9
:10129000002202740221FFF783BD0820704700BFBF
:1012A0000008002072B6024A1368013313607047C9
:1012B0000C090020034A1368013B136003B962B6AE
:1012C000704700BF0C090020EFF30583C3F3080348
:1012D0002BB9EFF31480C04300F0010070470120E8
:1012E0007047000008B5FFF7EFFF012803D004495D
:1012F000432000F031F8BDE80840FFF7D3BF00BF3E
:1013000089BD000008B5FFF7DFFF012803D00449BD
:10131000512000F021F8BDE80840FFF7CBBF00BF27
:1013200089BD00001EF0040F1CBFEFF309800AE026
:10133000EFF308800549064A884201D8904202D856
:101340008D464FF00000034B1847000000000220BC
:1013500000E00120D50A000007B5ADF800000191BA
:101360006A46002144F20200FFF77CFB03B05DF8FF
:1013700004FB10B5034653E8000F0A4643E8002477
:1013800094F0000FF7D110BD10B5034653E8002FBD
:1013900042EA010043E8000494F0000FF6D110BDCA
:1013A00010B5034653E8000F00EA010243E80024A9
:1013B00094F0000FF6D110BD10B5034653E8002F8E
:1013C00002EB010043E8000494F0000FF6D110BDD9
:1013D00010B5034653E8002FA2EB010043E80004D8
:1013E00094F0000FF6D110BD0121FFF7CDBF002111
:1013F000FFF7D6BF10B50446002834D003681BB9E8
:101400001A49FF20FFF7A8FF636823B917494FF473
:101410008070FFF7A1FFA36823B9144940F20110BF
:10142000FFF79AFFE36823B910494FF48170FFF783
:1014300093FF238A23B90D4940F20310FFF78CFF75
:10144000D4E9012321689B1ADBB20A60013BDBB2BD
:10145000FF2B226802D10020107110BD1168481CBA
:1014600010600B70F2E70E20F7E700BFDEBD000052
:1014700038B5044620B912494FF49270FFF76CFF5B
:101480000020FFF72FFF2268616813688B4215D98F
:10149000591E116013F8013C228AE56802FB0355CE
:1014A0002268A36811685B1A1179DBB2994200D2F5
:1014B00013710020FFF726FF284638BD0025F8E706
:1014C000DEBD000038B50C46054620B90E4940F295
:1014D0004710FFF741FF24B90B494FF4A470FFF701
:1014E0003BFF0020FFF7FEFE2A681368591C1160BD
:1014F000EA68A41A2A8AB4FBF2F41C70BDE83840EA
:101500000020FFF7FFBE00BFDEBD00001FB503785F
:101510008DF800308388ADF8043083688DF806308C
:10152000C3688DF80730036902934369054A039342
:10153000054B684653F8213052F82110984705B002
:101540005DF804FB100900201809002010B503689D
:10155000292B044604D9074940F2CD10FFF7FCFEC1
:1015600023681F2B83BF03F01F03236002484FF043
:10157000A04010BD12B600000003005007B5019056
:1015800001A8FFF7E3FF019A01239340C0F8083553
:1015900003B05DF804FB0000024B4FF4807043F091
:1015A0000103184720CA00002DE9F743154690F8BB
:1015B0000080354A42F82850344A42F828304B7BA4
:1015C00006460C4683B30B684FF0A04703F5E07363
:1015D00040F20C6247F823204B6803F5E0734FF0AC
:1015E000010947F823200868FFF7C8FF6068FFF784
:1015F000C5FF236803F5E07340F20D6247F823202E
:10160000636803F5E07347F82320FFF7C5FF002761
:101610006368019301A8FFF799FF019AD0F810358C
:10162000D340DB070CD5FFB9194A002D434608BF4C
:101630002A462146301D03B0BDE8F04302F01CB934
:101640002368019301A8FFF781FF019B09FA03F3C7
:10165000C0F80C35FFF7A0FF01372068FFF78EFFB9
:10166000FFF79AFF092FD3D16368019301A8FFF711
:101670006DFF019A01239340C0F80C35FFF78CFFF2
:101680006068FFF77BFFCFE71809002010090020F2
:101690000D1500001FB503788DF8003043680193E5
:1016A00083688DF80830C368054A0393054B684684
:1016B00053F8213052F82110984705B05DF804FB2B
:1016C000240900202C0900201FB503788DF8003074
:1016D0004368019383688DF80830C368054A039313
:1016E000054B684653F8213052F82110984705B051
:1016F0005DF804FB240900202C090020F0B5194BEB
:1017000090F800C0DFF86CE043F82C20164B16462A
:101710000A6943F82C200C464B7F0EF80C30074624
:101720000FCC89B06D460FC594E80F0085E80F0017
:101730003B78CDF810C01EF803304BB1002E0B4A99
:10174000694608BF3246381D02F0A2FF09B0F0BD5D
:10175000002E074A694608BF324607F10C0002F026
:1017600071FCF3E72C0900202409002095160000E5
:10177000C91600002009002010B5044618B9064912
:101780003120FFF7E9FDA2682AB163692168206969
:1017900098470023A36010BD34BE00000EB433B5DB
:1017A000059D044618B911494220FFF7D5FD63692C
:1017B0001BB90E494320FFF7CFFD23681BB90B4926
:1017C0004420FFF7C9FD63681BB908494520FFF7AE
:1017D000C3FD35B106AB01AA29462046019300F0AE
:1017E00071F802B0BDE8304003B0704734BE00006D
:1017F000826830B40468551C8560A154D0E9013278
:101800009A4202D330BCFFF7B7BF30BC704700002C
:101810002DE9F84F9946DDE90A4315468246884688
:101820000A460127AA420FD24F4538BF4F4613F050
:10183000010B01D164B900240126B9F1010F1CD9B3
:1018400009F1FF396E43F8E70137B2FBF5F2E9E73A
:101850009B0710D5B9F1000F0CBF30262026BC42E3
:10186000EAD9013C31465046FFF7C2FF002CE2D0D6
:10187000BC42F6D1E0E72026F1E7B8FBF6F39D4243
:10188000E0D9DFF83C90B8FBF6F3504619F80310A6
:1018900006FB1388FFF7ACFF3346AB42B6FBF5F609
:1018A000F1D2BBF1000F00D034B9BDE8F88F202190
:1018B0005046013CFFF79CFFBC42F8D8F5E700BF5B
:1018C00026CA00002DE9F74F0F469046054620B97D
:1018D000B74940F25220FFF73FFD6B6923B9B44985
:1018E0004FF41570FFF738FD2B6823B9B04940F26B
:1018F0005520FFF731FD6B6823B9AD4940F2562002
:10190000FFF72AFD002F00F0558117F8011B49B998
:101910002B7B002B00F04E81284603B0BDE8F04F32
:10192000FFF72ABF252940F0BD8000263A4612F86D
:10193000013B2D2B25D0302B27D02B2B28D000245A
:101940002A2B07F1010226D1D8F80030191DC8F85A
:1019500000101B6817461C443B782E2B27D10137FB
:101960004FF0000A0A20394611F8012BA2F1300C81
:10197000BCF1090F1DD800FB0A22A2F1300A0F4664
:10198000F1E746F001061746D0E746F00206FAE70F
:1019900046F00406F7E712F8013CA3F130010929EB
:1019A000DAD80A2101FB0434303C1746C8E74FF06F
:1019B000000A3A4612F8011B01F0FB00682817469E
:1019C000F8D0782909D86F290BD8632964D021D899
:1019D000252967D0582900F095803B78002B94D1B9
:1019E00096E770390829F8D801A252F821F000BF13
:1019F000871B0000DB190000DB190000191B000029
:101A0000DB190000EF1A0000DB190000DB190000F1
:101A1000051B0000642901D06929DED1D8F8002017
:101A2000111DC8F80010D2F800B08BEAEB72A2EBDF
:101A3000EB724FF001090A21092A37DCD14538BF82
:101A4000D1462CB1BBF1000F01DB720700D5013C80
:101A5000B30702D5BAF1000F03D0F00701D454BB8D
:101A60000024BBF1000F32DACBF1000B2D21284608
:101A7000FFF7BEFE06F00302022A04D1BAF1000FFE
:101A800001D144BB0024CDE9004653460A22594601
:101A90002846FFF7BDFEA0E7D8F800301A1DC8F8A9
:101AA000002019782846FFF7A3FE96E709F10109FF
:101AB000B2FBF1F2C0E7A145D3D2013C2021284678
:101AC000FFF796FE002CCBD0A145F6D1C9E77107F0
:101AD000D0D52B21CBE7A145D5D2013C30212846DA
:101AE000FFF786FE002CCDD0A145F6D1CBE7D8F884
:101AF00000100A1DC8F80020CDE9004653460A220E
:101B00000968C5E7D8F800100A1DC8F80020534638
:101B1000CDE900461022F3E7D8F800301A1DC8F8C6
:101B2000002016F00106D3F8009024D1B9F1000F7F
:101B300003D0484603F064F90646B4421DD809F1C3
:101B4000FF3919F8011F00293FF447AF2846FFF776
:101B50004FFEF6E728460136FFF74AFE19F8061051
:101B60000029F7D1A642BFF438AF20212846013C16
:101B7000FFF73EFEF6E70026F0E720212846013C6D
:101B8000FFF736FED9E7D8F800301A1DC8F8002054
:101B9000302128461C68FFF72BFE78212846FFF7E6
:101BA00027FE00220823CDE90032214610226FE7EC
:101BB0007ABE000003B0BDE8F08F00BFF0B595B06D
:101BC0001D46164608460C4600F00EFD1A9B0D9366
:101BD000CDE9086500252B46082205A920460A956F
:101BE0008DF82C500C9500F027FD079B0293069B67
:101BF00003939DF814308DF8115003F00302012A6D
:101C00001DD1BDF81420059DC3F3C203C2F3831692
:101C10008DF81030B20008230EA9204600F00CFD0C
:101C2000C5F3952508AB0093324602AB0EA92846B2
:101C300000F080FB204600F0DBFC15B0F0BD022A6E
:101C4000F8D1BDF81650C3F3C203C5F389158DF85A
:101C500010300827082D2E4628BF08263B4632465E
:101C60000EA9204600F0E8FCAD1B08AB02AA3146E5
:101C70000EA8374400F0C2FB002DEBD1DAE70000DC
:101C800008B5FFF739F80748042100F0BBFA00282F
:101C900003DA05494820FFF75FFB044B01225A7124
:101CA00008BD00BF74D00000C7BE0000280000209F
:101CB000037813F0040215D003F00303012B03D0C3
:101CC000022B09D0012070470B6802880233C2F34F
:101CD000831213440B60F5E70B684288023303EB71
:101CE0009213F7E7104670472DE9F04FDFF834A163
:101CF0000F4687B00446861C00201546FFF7F2FA0F
:101D0000DAF800203A60DAE901130B4401339B1A38
:101D10000AF21C470AF583690AF21448B3421BD33E
:101D20000021002D77D004F00F04A40144F0050435
:101D300064F30F01DAF80020DAF8083013400333B7
:101D400032444AF823100020CAF80020FFF7DAFADC
:101D5000012007B0BDE8F08F01213846FFF72CFBCA
:101D60004846FFF741FB4046FFF73EFBDAF8040028
:101D7000DAF808B0029000EA0B0003300AEB8000AA
:101D800002A9FFF795FF029B0246E0B90BEA0301A7
:101D90000AEB8101C8680390991C013303EA0B0325
:101DA0000AEB830300F003000128DB6802912AD0CC
:101DB00002280BD01A4901924FF4BF70FFF7CCFAFA
:101DC000019A93460CE00BEA0300D6E74FEA134B67
:101DD000BDF80E30C3F38913033301EB9303029371
:101DE0004046FFF704FB10B1029BCAF80430594685
:101DF0003846FFF7E1FADAE901231344DAF8002064
:101E000001339B1A8AE74FEA134BBDF80C30C3F33A
:101E100083130B44E3E7A40544F006018AE700BFFF
:101E200037BF0000340900200B4B0C48FF2210B5CF
:101E30009A600022C3F81824C3E90022C3F81424CE
:101E4000012283F8202400F08BFB044610B90448DB
:101E500000F0FCFC204610BD340900204CD00000EE
:101E600038CA000030B50A4C71B10A4A0A49121B3F
:101E7000D20800239A4201D1002030BD31F823500E
:101E8000854202D00133F5E7034654F83300F4E706
:101E9000E4CF00004CD00000FC060020094B0139C3
:101EA00003EBC000032909D8DFE801F0020A0406A9
:101EB00002207047007970474079704700207047D2
:101EC00004207047E4CF0000034BD3E90030C31A6D
:101ED00058425841704700BF340900202DE9FF47A0
:101EE000FFF7F2FF002840F083807E4DC5F818040C
:101EF000BFF34F8F6868AC6800902040033005EB5B
:101F000080006946FFF7D4FE009B18B1D5F818246D
:101F1000002A69D004EA03029F1C013305EB820208
:101F2000234005EB8303D268DB68029302F00303CE
:101F3000022B019200976ED1BDF806306A48C3F3B8
:101F40008918B8F1500FC14628BF4FF0500969F306
:101F50008F1309F10801ADF8063000F019FB0646B1
:101F6000002800F0A98000F03FFB00233046082243
:101F700001A900F04BFB24EA07030133B9EB830FFF
:101F80004FEA83003FD95FFA89F9002837D004EA85
:101F90000701C4B2A9EB040A0331A146534C05EB77
:101FA00081015FFA8AFA08234A46304600F02EFB88
:101FB00034B109F1080352462146304600F026FBB1
:101FC00008F1030807EB98070097D5F81834D5F8FF
:101FD0001044002B5FD0304600F00AFBFFF774FF7F
:101FE00080F00100C0B204E02A689A4204D86A6016
:101FF000002004B0BDE8F08704EA03007EE73B4917
:1020000004468246CFE704EA0701033108234A4623
:1020100005EB8101D1E7012B4ED1BDF804303248E8
:10202000C3F38311062928BF062161F38913023106
:1020300001F00F018900ADF8043000F0A9FA06465E
:10204000002839D000F0D0FA0023082201A9304638
:1020500000F0DCFA0027BDF80420C2F38312BB00B5
:10206000BA4203F10803B0D900994A1C2140033158
:10207000009205EB81010422304600F0C7FA0137D7
:10208000E9E7E3685B7923B1236831461B682046A2
:102090009847E3681C68002CF3D1304600F0A8FA9A
:1020A0002046FFF71FF9D5F818340BB9009B6B6079
:1020B0000020FFF727F991E7D5F8104454B90C4BED
:1020C0000C480D49C01AC008000440F0020000F09E
:1020D00071F883E7236820469B689847E3681C688B
:1020E000ECE700BF340900204CD00000400900207C
:1020F000E4CF000034D000008EBF00002DE9F74F80
:10210000274E04460F46914601A901221846D6F8EB
:1021100008A09846FFF7E8FD78B3019D0023A81CAE
:10212000434503EB000132D100211E48FFF721F99E
:102130004FEA144980F3100B1B4B1C4A9B1AB9EB56
:10214000D30F04D31A4940F2A310FFF705F96B1C13
:1021500003EA0A03E40006EB830304F0380449EAC7
:102160000B4205EA0A0544F00104DA60033544EA4B
:10217000881343EA872346F8253096F820341BB1AC
:10218000FFF7ACFE0028FBD103B0BDE8F08F01EAF9
:102190000A0106EB810159F82320CA600133BFE729
:1021A00034090020500D00204CD00000E4CF000086
:1021B00037BF000000231A46FFF7A0BF07B5012371
:1021C000019201AAFFF79AFF03B05DF804FB1FB567
:1021D000CDE90123069B039301AA0323FFF78EFF9A
:1021E00005B05DF804FB1FB5CDE90023069B029303
:1021F000079B03936A460423FFF780FF05B05DF851
:1022000004FB000030B51349D1F810440346002008
:1022100022464AB9DC682071D1F8104484B9C1F86B
:102220001034DB681A600AE0D2681579854201D063
:102230001268EEE701300A28EAD14FF0FF3030BDD6
:10224000E468DA6824681460D1F81024D268136056
:10225000F5E700BF3409002038B5084B0125D3F855
:10226000104483F8205404B938BDE3685D712368D5
:1022700020465B689847E3681C68F4E7340900204F
:1022800010B5037A052B0C460FD0437A23B1084AC8
:1022900008492046FFF782FA07492046FFF77EFAF1
:1022A0002046BDE81040FFF767BA002AF8D0F3E7F0
:1022B000A3BF0000A8BF0000C8BF000073B5C3885B
:1022C00004460D4633B1144A00921449144A284674
:1022D000FFF764FA217A05291CD0637A4BB1A088F4
:1022E000FFF7DCFD0F4B104953F820202846FFF77D
:1022F00055FA227A0D4BA08853F822600021FFF78F
:10230000B1FD0B4903463246284602B0BDE8704095
:10231000FFF744BA02B070BDA3BF0000B3BF000016
:10232000ABBF000044CA0000A8BF000068CA00009C
:10233000CBBF00002DE9F04385B01F460C9D002364
:1023400095F80C902B7306460C4690462946384665
:10235000FFF7B4FFB8F1060F09D8DFE808F0041260
:10236000181F2833400031462846FFF717FA00228D
:1023700029463846FFF784FF85F80C9005B0BDE884
:10238000F083226831462846FFF708FAEFE7D4E9E0
:10239000002331462846FFF701FAE8E7A3680093D7
:1023A000D4E9002331462846FFF7F8F9DFE7E36870
:1023B0000193A3680093D4E9002331462846FFF730
:1023C000EDF9D4E723690293E3680193A3680093CE
:1023D000D4E9002331462846FFF7E0F9C7E76369EF
:1023E000039323690293E3680193A3680093D4E9FC
:1023F000002331462846FFF7D1F9B8E708292DE92F
:10240000F84F80460E4617461C463BD8002593F8E9
:102410000C901D7319461046FFF750FFDFF88CA093
:10242000DFF88CB0AE422FD918F805205946204667
:10243000FFF7B4F90135082DF4D11949194DDFF82A
:1024400074B02046FFF7AAF94FF0000A564522D98A
:1024500018F80A207E2A1CD81BF8021011F0970FDA
:1024600008BF2E2210492046FFF798F90AF1010A09
:10247000BAF1080FEAD1012221463846FFF700FFE2
:1024800084F80C90BDE8F88F51462046FFF786F996
:10249000D0E72E22E6E729462046FFF77FF9E5E759
:1024A000DFBF0000DDBF0000E1BF0000DBBF0000B8
:1024B000D5BF0000B1CB00002DE9F74F99469DF83C
:1024C0003030009388469346064618B92349B62013
:1024D000FEF742FFF28871794A43043A4A4505D82B
:1024E0001E490192C420FEF737FF019ADBF8007005
:1024F000B6F806A007EB0901914209F1040488BF70
:10250000A2EB0907B4FBFAF5CBF800700AFB1544FF
:1025100045B9AAEB040BBB4528BFBB462FB903B096
:10252000BDE8F08F3668013DF2E7009B043408EB0C
:10253000050034445A466BB12146A7EB0B0702F065
:1025400053FDBA455D443668D3464FF0000428BFBA
:10255000BB46E3E701462046EFE700BF2FC000007F
:10256000FEF748BFF8B546790146721E05460023BE
:1025700093422D6803D30024A64202D8F8BD01334C
:10258000F6E70F682846FEF79DFF01343946F3E76A
:102590002DE9F041CD1C078A0646FEF769FF043F8E
:1025A0003D440446B5FBF7F5D0B14FF48073EDB26E
:1025B000C7808380013D066080460027AF4210D26D
:1025C0003046FEF755FF40B163790133637101373F
:1025D000C8F8000006608046F0E72046FFF7C2FF1B
:1025E00000242046BDE8F08101210430FEF7E4BE5E
:1025F00010B5012104460430FEF7EAFEC0B220B94E
:102600002046BDE81040FFF7ADBF10BD1FB5144612
:1026100003920022009203AAFFF74EFF039BA342FE
:1026200006D00449F62004B0BDE81040FEF794BE81
:1026300004B010BD2FC000001FB514460392012244
:10264000009203AAFFF738FF039BA34207D0054976
:102650004FF4807004B0BDE81040FEF77DBE04B0BA
:1026600010BD00BF2FC000000268136851688B4284
:1026700083BF826801325218C81A88BFD01A7047C7
:1026800038B50C46054618B904498320FEF764FEA8
:10269000AB68A3428CBF601C002038BD88C000001E
:1026A00038B5044618B907499820FEF755FE236847
:1026B00020461D685968FFF7E3FF431B5842584105
:1026C00038BD00BF88C000002DE9F0410D4604462A
:1026D00018B92D49A320FEF73FFE1DB92A49A420B1
:1026E000FEF73AFE0020FEF7FDFD2046FFF7D8FF7B
:1026F000074610B1237C002B43D1D4F8008020463C
:10270000D8F80460D8F80410FFF7BAFFC8F804003E
:102710002FB1276820463968FFF7B2FF3860E268BA
:102720006068531E072B24D8DFE803F00414231835
:102730002323231C2B7883552046FFF795FF23681E
:102740009A6882421BD300240020FEF7DBFD20465E
:10275000BDE8F0812B8820F81630EDE72B6840F8B3
:102760002630E9E7D5E9002300EBC600C0E90023E5
:10277000E2E7294606FB020002F036FCDCE798603F
:10278000E1E70424E0E700BF88C0000010B504467C
:1027900020B9064940F22B20FEF7DEFD23681868B9
:1027A0005B68C31A5842584110BD00BF88C0000082
:1027B0002DE9F0410C469046054618B92249E7201C
:1027C000FEF7CAFD1CB92049E820FEF7C5FD002030
:1027D000FEF788FD2846FFF7D9FF002832D12F6881
:1027E0003E68B8F1000F04D139682846FFF748FF6A
:1027F0003860EA686968531E072B1DD8DFE803F0CC
:10280000040D1C111C1C1C158B5D23700024002062
:10281000FEF778FD2046BDE8F08131F816302380C0
:10282000F4E751F826302360F0E701EBC601D1E967
:102830000023C4E90023E9E706FB0211204602F069
:10284000D3FBE3E70524E2E788C0000082680023A9
:10285000936082681361826853618268D360826882
:10286000536082681360704710B50B4AA2F58C73F1
:102870009A4201D800200CE0D11A091103EBC104DF
:1028800053F83110814205D802D204F10803EFE772
:10289000606810BD2246EBE794CB000008B5FFF757
:1028A000E3FF024B002808BF184608BD94CB000088
:1028B000C0B2002348700B707047000070B50D4621
:1028C000044618B908497120FEF746FD23681A68C6
:1028D00012683AB11A681B6851681B682846BDE83F
:1028E0007040184770BD00BF67C40000F0B50446D3
:1028F00087B018B92D493720FEF72EFD21680A7ED2
:102900000B689E6806EBC20CD0B256F832609CF899
:1029100005309CF804704FEAC20E9CF8062012F0B5
:10292000010F4FEA530503F0010336D0002B34D1D9
:10293000D1F800C09CF80CC0013060452DDA086861
:1029400080680EF1080C60444079B5EB500F24D13B
:102950000B68087E9B6803EB0C0253F80CC053799C
:1029600092F804E0927903F001030130C3F103030C
:102970005201C0B2DBB202F02002087601A904F1D4
:102980000C00CDE9027ECDE9046C8DF804308DF8A1
:10299000055001F0B1F807B0F0BD52014FF0000C46
:1029A000DBB202F02002E646E8E700BF67C40000A1
:1029B0002DE9F84F0E46044618B927498720FEF73F
:1029C000CBFC2568DFF894904FF000080020FEF75C
:1029D00089FC16B923681B683BB960680022294648
:1029E000FFF7E6FE88B3C5F8008000260020FEF75A
:1029F00089FC7EB32B681B694BBB2F1D68691022B5
:102A0000394602F0C3FAA8B104F10C0B584604F1A0
:102A1000080A01F017F823464A4639465046FEF7A1
:102A2000C3FD18B10C49B420FEF796FC584600F0DF
:102A3000BFFF6F6185F818802046FFF757FF0146FA
:102A400040B12046FFF73AFFC0E70126CEE72B68EA
:102A50001F69D3E7BDE8F88F67C40000612A000052
:102A600038B50C46054618B91249D220FEF774FC59
:102A700023681B681BB90F49D820FEF76DFC297825
:102A800071B92268137E10680133007BDBB2984273
:102A900007D913762046FFF729FF014608B938BD4C
:102AA00003212046FFF70AFF20460121BDE83840F8
:102AB000FFF77EBF67C40000F8B50D46044620B995
:102AC00019494FF48470FEF747FC636823B916492F
:102AD00040F20910FEF740FC63689B6823B9124975
:102AE0004FF48570FEF738FC25B90F4940F20B1002
:102AF000FEF732FC0D4A2346294604F10800FEF792
:102B000053FD074670B904F10C0000F051FF236833
:102B10001F6095E80F002668043686E80F002368DA
:102B20001A1D5A613846F8BD67C40000612A0000CA
:102B300037B50546019120B9144940F22D10FEF732
:102B40000BFC019B23B911494FF49770FEF704FC6D
:102B5000019B9B6823B90D4940F22F10FEF7FCFB47
:102B6000019B1B7B23B909494FF49870FEF7F4FBD6
:102B7000686801A9FFF7A8FD044618B90146284670
:102B8000FFF716FF204603B030BD00BF67C400004A
:102B90002DE9F04186B00F46DDF8308016461D461F
:102BA000044620B9194940F24F10FEF7D5FB26B96B
:102BB00016494FF4A870FEF7CFFB25B9134940F230
:102BC0005110FEF7C9FB0023ADF8003001238DF84A
:102BD000003001A90E4B01932046CDF808D0039692
:102BE0008DF810500597FFF7A3FF30B106B0BDE890
:102BF000F081B8F1000F00D0C0479DF80030002BE5
:102C0000F7D19DF80100C0B2F0E700BF67C4000033
:102C1000B128000007B54FF08043D3F8002162B11E
:102C20000020C3F80001D3F800210092009A01228D
:102C3000C3F808230D4B1B6898474FF08043D3F827
:102C4000042182B10022C3F80421D3F804210192A7
:102C5000019A0222C3F80823044B1B68012003B029
:102C60005DF804EB184703B05DF804FBC00E0020CC
:102C700000F1804000F5C040002382B0036003688B
:102C80000193019B02B07047C208012300F00700C6
:102C90008340885C03438B547047000010B5036881
:102CA000292B044604D9074940F2CD10FEF754FB06
:102CB00023681F2B83BF03F01F03236002484FF0DC
:102CC000A04010BD12B600000003005013B50190E3
:102CD00001A80C46FFF7E2FF019B00EB8300D0F850
:102CE000003723F44033C0F80037D0F8003743EA08
:102CF0000443C0F8003702B010BD00004FF0A043FD
:102D0000D3F810350360024BD3F810354360704799
:102D1000000300502DE9F04F00248BB0CDE90244B0
:102D2000604D4FF48072012102F1804303F5C043EE
:102D30001B68012B07D1D5F804330B4203D090B2A6
:102D4000FFF796FF0C430432B2F5907F4FEA410142
:102D5000EAD1544BD3F87C31012B08D14FF4BE702B
:102D6000FFF786FF02A844F00044FFF7C7FFE3B275
:102D7000D3B14D4F00250126344210D0AB0003F1F2
:102D8000804303F5C043D3F81005D3F8101557F866
:102D9000253023B1C1F30141C0F305209847013527
:102DA000082D4FEA4606E7D1002C77DA0023CDE95B
:102DB00004334FF0FF33CDE90633DFF8ECB03B4B83
:102DC000019300273D46019B13F9014F0193631CBA
:102DD0004ED0C4F3C2080122E3B204F03F0604F06F
:102DE000070402FA04F408F128020DEB020818F8AF
:102DF000102C22423CD00BEB06024FEA931A92F9B8
:102E000030205BF82290B9F1000F07D1BAF1030F1F
:102E10002ED104A93046FFF737FF02E0BAF1030FC5
:102E2000F7D008A80896FFF739FF089A18F8201C71
:102E300002F5E072214250F82220C2F3014206D08E
:102E4000022A15D1BAF1030F0CD1514605E0032A2D
:102E50000ED1BAF1030F05D102213046FFF736FF3C
:102E60000135EDB2B9F1000F02D051463046C847E6
:102E70000137042FA7D18DB108A8FFF73FFF029BB0
:102E8000089A9A42099B02D103998B4206D002927A
:102E90000393049A059B0692079390E70BB0BDE855
:102EA000F08F00BF00600040C80E0020210F0020FE
:102EB00010B5054C23681BB904495120FEF74CFAA4
:102EC0002368BDE810401847300F0020C8C4000038
:102ED00038B50C4628B90C497720FEF73DFA00209A
:102EE00038BD0A4B9842FAD10020FEF7FBF9084B97
:102EF0001D7915B901221C601A710020FEF702FA33
:102F0000002DECD01120EBE7C8C4000000200040E9
:102F1000300F002018B906499B20FEF71DBA054B5B
:102F2000984201BF044B00221A601A71704700BF1B
:102F3000C8C4000000200040300F00200023435090
:102F400082B043580193019B02B0704738B51D46CB
:102F500002230B710B684A7104467BB112F0040F17
:102F600014BF92218221100748BF41F02001D306EF
:102F7000236848BF21F08001C3F8001320684FF494
:102F80008271FFF7DBFF12F0800F206805BF01237D
:102F900043514019002038BD70B5D0F810310546B6
:102FA0000C4653B14FF48871FFF7C8FF63795A0795
:102FB00003D523680BB101209847D5F814315BB1D4
:102FC0004FF48A712846FFF7B9FF63791B0703D5D1
:102FD00023680BB102209847D5F81C315BB1284615
:102FE0004FF48E71FFF7AAFF607910F0100002D144
:102FF000236803B19847D5F8043163B14FF4827167
:103000002846FFF79BFF0123237123681BB1BDE80E
:1030100070400320184770BD10B50368292B044683
:1030200004D9074940F2CD10FEF796F923681F2B0B
:1030300083BF03F01F03236002484FF0A04010BD80
:1030400012B60000000300502DE9F04104460E4680
:10305000154622B91D4940F2AB20FEF77DF92F68D5
:1030600027B91A494FF42E70FEF776F904EB46188B
:10307000C8F82075AF881FBB144940F2C120FEF785
:103080006BF9C8F82475AF68B7F1807F04D30F4996
:1030900040F2CB20FEF760F94FEA461804EB4616E3
:1030A000C6F82875ED68B5F1807F04D307494FF461
:1030B0003570FEF751F94444C4F82C55BDE8F08151
:1030C0003B04DED5014940F2C220D8E71BC5000011
:1030D0002DE9F04F044689B090460D4619B9624972
:1030E0008020FEF739F92779604EFB00019306EB4B
:1030F000C7031B79002B40F0B48046F8378005F1F8
:10310000FF390DF1100805F1030A19F8012FFF2A04
:1031100000F0A28022F0800B1306C8F800B0CDF8B2
:103120000CB003A840F19080FFF776FF03990122CD
:103130008A40C0F8082503A8CDF80CB0FFF76CFF53
:10314000039B03F5E073032240F82320D14508F1E7
:103150000408DAD12368049AC3F86025059AC3F8F5
:103160006425069AC3F86825079AC3F86C25236876
:103170000122C3F80025B5F90830D4F8008095F88D
:1031800005B095F806A0B5F80890002B04DA384988
:103190004FF42870FEF7E0F8C8F80CB5C8F804A59D
:1031A000C8F8089523686A89C3F8102522680023A7
:1031B000C2F800322268C2F8003320684FF48E71E2
:1031C000FFF7BCFE20684FF48871FFF7B7FE206858
:1031D0004FF48A71FFF7B2FE20684FF48271FFF757
:1031E000ADFE56F837303BB32D792768072D47F3EE
:1031F000073703D91F496B20FEF7AEF8002FB6BF83
:103200001D4B07F1604707F00F074FEA4515EDB278
:10321000AABF07F56147DD5587F80053236843F3DC
:103220000733002B08DB0122590903F01F0302FAC0
:1032300003F3124A42F82130019B1E4401233371EB
:10324000002009B0BDE8F08FFFF7E6FE03990122E8
:103250008A40C0F80C256EE74FF0FF33C8F8003005
:1032600074E70820EDE700BF5DC50000380F0020BF
:103270001BC50000A8C5000014ED00E000E100E05F
:103280002DE9F04115461E460279244B03EBC20896
:10329000044698F804300F4623B921494FF48D7045
:1032A000FEF75AF825B91E4940F21B10FEF754F8F4
:1032B0003B6803F06043B3F1005F04D018494FF45A
:1032C0008E70FEF749F820683A460021FFF7BCFEF1
:1032D0003A4620680121FFF7B7FE226805F0010396
:1032E00003EB5505C2F81455F20715D416F0020287
:1032F00003D0002B0CBF042208222168002BC1F848
:1033000000222046F2B2414608BF0823BDE8F04142
:1033100018BF0C23FFF71ABE1022EEE7380F00206B
:103320005DC5000070B50D4C0379DE0004EBC303EE
:1033300005461B7923B90A494FF4C870FEF70CF80B
:103340002A6834442379D2F80421DBB21AB9981ED2
:1033500018BF012070BD01202071FBE7380F00204D
:103360005DC5000038B50F4B027903EBC20304467C
:103370001B790D4623B90C4940F27310FDF7ECFFA1
:103380002046FFF7CFFF50B9236801225A6020463C
:10339000FFF7C8FF18B9002DF9D1284638BD01251F
:1033A000FBE700BF380F00205DC50000014902485F
:1033B000FFF7F2BD380F002000C00140014902486C
:1033C000FFF7EABD400F00200010024000F18040EE
:1033D00000F5E040002382B0036003680193019B85
:1033E00002B07047F0B5544B544CD3F8043194F804
:1033F0002E2085B0002B3BD04FF48270FFF7E6FF04
:103400002AB394F82F3013BB4B4AD2F80031002B6B
:1034100032D04FF48070FFF7D9FF638B94F82D0002
:10342000834250D921891B1A9BB289B26383CB1A7C
:10343000616801EB4301C2F82C16C2F830064FF464
:103440008270FFF7C3FF3C4B01225A6014E06368AF
:1034500002932389ADF80C30E36800218DF8041045
:1034600033BB2374236801A89847002384F82F30C6
:1034700094F82E30002BC7D12F4BD3F810315BB10D
:103480004FF48870FFF7A2FF0023237402238DF806
:10349000043001A823689847274BD3F814310BB3A5
:1034A0004FF48A70FFF792FF0023237405B0F0BD3C
:1034B000208B608363602081E160002AD2D11E4BA3
:1034C00001221A60CEE7BAD1E168012084F82F000A
:1034D00031B100206083C2F82C16C2F83036AEE756
:1034E0006183ACE766694FF000470125002EDDD00F
:1034F000B6FA86F227FA02F34632920026EA03066B
:1035000002F1804303F5E0431B68002BEED0104628
:10351000A2F58C72FFF75AFFD30882F00402C2F3BF
:1035200080028DF808308DF8045023688DF809204A
:1035300001A89847DAE700BF00700040480F00205C
:1035400010B50368292B044604D9074940F2CD1071
:10355000FDF702FF23681F2B83BF03F01F032360C7
:1035600002484FF0A04010BD12B60000000300500A
:1035700007B5019001A8FFF7E3FF019A01239340EB
:10358000C0F80C3503B05DF804FB07B5019001A845
:10359000FFF7D6FF019A01239340C0F8083503B026
:1035A0005DF804FB13B5144BD3F8182112B30022B5
:1035B000C3F81821D3F81831104C0193019B2368EC
:1035C00023B90F494FF42770FDF7C6FEE07FFF28AF
:1035D00003D0A37F5BB1FFF7CBFF00236377237298
:1035E000D4E90031074802B0BDE810401847FFF7A2
:1035F000CCFFF2E702B010BD00300240780F00208F
:10360000F6C50000800F00202DE9F7430024064690
:103610000F4600F5A0754FF48038A1462B688BB19A
:10362000D6F8043308FA04F21A420BD0C5F8009019
:103630002B680193019BA30003F5A07398B2D7E90F
:10364000003198470134042C05F10405E6D103B09C
:10365000BDE8F08301490248FFF7D6BF9C0F002068
:103660000080004001490248FFF7CEBFA80F0020AC
:10367000009000400023435082B043580193019BC7
:1036800002B070470A7B0346032A2CD8DFE802F019
:1036900024281C028868154A904204D1D3F84C258E
:1036A0000869904209D1886840F2022290421AD1FA
:1036B000D3F84C254969914215D000200622C3F861
:1036C0000005C3F800257047D3F84C2508699042DF
:1036D000F3D1D3F83C25EDE7D3F84C250969EAE7A7
:1036E000D3F83C25FAE70120704700BF0002040030
:1036F00010B50368292B044604D9074940F2CD10C0
:10370000FDF72AFE23681F2B83BF03F01F032360EE
:1037100002484FF0A04010BD12B600000003005058
:10372000F0B50B6887B005460C4623B9484940F20E
:103730008620FDF711FED5F82431B3B14FF4927114
:103740002846FFF797FFD5F8043173B9A368C5F889
:1037500008330223A360A368C5F8043301232B6256
:103760006B6184F82E3007B0F0BDD5F804316BB32F
:103770004FF48271284604F10C07FFF77BFF0FCF4F
:1037800001AE0FC63B68336094F82E303BB921463A
:103790002846FFF777FF80F0010084F82E004FF4F1
:1037A000B0712846FFF766FF4FF4AE71FFF762FF76
:1037B00094F8303013B194F82E30CBB10023C5F813
:1037C0000032A360234BC5F8083311E04FF4A47115
:1037D0002846FFF74FFF237B1BBB04F10C070FCFDD
:1037E00001AE0FC63B68336094F83030002BE6D052
:1037F000D5F8C434C5F8C4349A0724D413F0050F9F
:1038000023D194F82E309B00DBB28DF8003094F871
:1038100030300BB984F82F30D4E90031684698472E
:10382000A1E74FF40073C5F8003240F20223A36011
:1038300003F1CE73C5F80833A368C5F80433012338
:10384000AB602B628FE70123DFE70223DDE700BFD8
:103850004DC6000002029C0101490248FFF760BF0B
:10386000B40F00200030004002494FF04020FFF725
:1038700057BF00BFE80F00202DE9F04F85B0064686
:10388000934601930C4619B94349E220FDF764FDC4
:10389000D4E900239A4203D13F49E320FDF75CFDC0
:1038A00096F804803D4F342303FB08FA07EB0A0522
:1038B00095F82D20002A69D1394A306852F828102D
:1038C000FFF706FB8146002863D1019B47F80AB049
:1038D0006B60A86085F8300085F82F00627B85F862
:1038E00032202268039203A8FFF702FF039A02F531
:1038F000E07240F20C6540F8225003A8626803921F
:10390000FFF7F6FE039A57F80A3002F5E07240F826
:103910002250D4E900103268C2F80815C2F80C052C
:10392000A168C2F824153BB3247B3568072C45F306
:10393000073503D91B496B20FDF70EFD002DB6BFDF
:10394000194B05F1604505F00F054FEA4414E4B248
:10395000AABF05F561455C5585F80043336843F31C
:103960000733002B08DB0122590903F01F0302FA79
:1039700003F30E4A42F82130342303FB0877012376
:1039800087F82D30484605B0BDE8F08F4FF00809A4
:10399000F8E74FF01109F5E74DC60000B40F00201D
:1039A000A8CB0000A8C5000014ED00E000E100E095
:1039B00070B50D4C0679342303FB0643054693F896
:1039C0002D30012B04D009494FF4A570FDF7C4FC3C
:1039D0002B680622C3F80025342303FB0644022388
:1039E00084F82D3070BD00BFB40F00204DC600001C
:1039F00070B5114C0679342303FB0643054693F852
:103A00002D3023B90D4940F25510FDF7A5FC3422A5
:103A10002B6802FB06440021094AA160C3F8082371
:103A2000D3F8002222F4BC52C3F80022C3F80015D8
:103A3000012384F82D3070BDB40F00204DC6000066
:103A400002029C01F7B5294D0679342303FB065386
:103A5000044693F82D3023B9254940F23110FDF783
:103A60007BFC34237343EB5893B1236843F3073350
:103A7000002B0DDB5A09012103F01F03994002F1CD
:103A800020031C4A42F82310BFF34F8FBFF36F8F00
:103A90002046FFF7ADFF2068FFF73CFA342303FB15
:103AA000065393F83230C3B9236801A8D3F8083518
:103AB0000193FFF71DFE019B03F5E073022740F819
:103AC0002370236801A8D3F80C350193FFF710FE8B
:103AD000019B03F5E07340F82370342303FB065584
:103AE000002385F82D3003B0F0BD00BFB40F0020D7
:103AF0004DC6000000E100E02DE9F8430379012BF9
:103B000004460D46174607D84B68B3F5803F03D2ED
:103B10008B68B3F5803F04D3BB4940F22F20FDF7FB
:103B20001BFC94F80490DFF8EC82342606FB09F6BF
:103B300058F80630A3B92B78022B08D02B78032B2A
:103B40000ED1B1494FF40E70FDF706FC08E0AE4906
:103B500040F23720FDF700FC58F80630002BEDD07E
:103B6000342606FB09860023246886F82E30EB688D
:103B700003F06043B3F1005F03D010263046BDE888
:103B8000F883A24BC4F8083396F82F3023B1B368FA
:103B9000C4F804331126F1E717F0140F0CBF01230A
:103BA000002386F82F30AE46BEE80F0006F10C0C5D
:103BB000ACE80F00DEF80030CCF80030C7F300139B
:103BC00086F830306B78C4F888354FF4827120461F
:103BD000FFF750FD4FF49271FFF74CFD17F0010312
:103BE00018BF0123C4F8503517F0020318BF012392
:103BF000C4F840352B78032B00F2C880DFE803F0CF
:103C00008AB06B02FE0604D57F4940F2AB10FDF787
:103C1000A3FB380704D57C494FF4D670FDF79CFB15
:103C2000790704D5784940F2AD10FDF795FB2B6973
:103C300003F06043B3F1005F9FD14FF48073C4F889
:103C400000326B68EA68C4F844252046C4F8483559
:103C50004FF4A871FFF70EFD4FF4B071FFF70AFDA6
:103C60004FF4A471FFF706FD01232362A360D4F88B
:103C70005031002BFBD04FF4A8712046FFF7FAFC1F
:103C8000AB682A69C4F84425C4F84835342303FBDB
:103C900009835F4A9A604FF48271082300263A072D
:103CA00004D42A78032A1CBF0122E250342303FBE8
:103CB00009F308EB030258F80330002B78D07B0798
:103CC00044BF4FF400739360342303FB09839B6864
:103CD000C4F8043352E76B68EA68C4F84425C4F8B2
:103CE00048352B6903F06042B2F1005F7FF445AFC5
:103CF000AA68C4F834354FF48453C4F83825C4F89E
:103D00000032342303FB098340F202229A6001232C
:103D10002362C0E76B68EA68C4F8442517F0200FF7
:103D2000C4F848354FF034030ED04FF4807203FBD3
:103D30000983C4F800224FF4A471354A9A60FFF752
:103D400099FC01232362A8E74FF4007203FB098367
:103D5000C4F8002240F202229A604FF48271F0E728
:103D60006B68EA68C4F83425C4F838354FF48053DA
:103D7000C4F80032342303FB098340F202229A6024
:103D8000012323624FF48271002387E74FF482718D
:103D90000823072683E7D4F8243153B14FF49271F6
:103DA0002046FFF767FC012323624FF482716361B1
:103DB00021440B68002BEED03421D4F8C434C4F86D
:103DC000C43401FB0982002082F82F0093B113F064
:103DD000010F14BF4FF40246032648F2012213F0EC
:103DE000020F18BF164613F0040F48F2022318BF43
:103DF0001E46C3E609FB01812046FFF743FC00286D
:103E000008BF0326BAE600BF4DC6000002029C01AF
:103E100000020400B40F00200023435082B0435836
:103E20000193019B02B070470A4610B54FF48E71A2
:103E3000FFF7F2FF136A9168C95C136A01331362DA
:103E4000C0F81C1510BD08B502464FF49271006809
:103E5000FFF7E2FF10684FF48471FFF7DDFF13688E
:103E600001221A6008BD000010B50368292B044622
:103E700004D9074940F2CD10FDF76EFA23681F2BD5
:103E800083BF03F01F03236002484FF0A04010BD22
:103E900012B600000003005007B5019001A8FFF71B
:103EA000E3FF019B03F5E073022240F8232003B0F7
:103EB0005DF804FB10B58B690A464FF4847123B991
:103EC000FFF7AAFFD0F8183510BDFFF7A5FF536A1A
:103ED000D168D0F81805C854536A01335362F3E728
:103EE0001FB501238DF80030044BCDE90110D3E953
:103EF00000126846904705B05DF804FB1C100020D6
:103F000030B54E4DD5F804339A0585B051D5D5F866
:103F10002431002B4DD04FF492712846FFF77CFFDF
:103F20004FF40173C5F80833454B93F829200AB9BB
:103F300001226A60414902228DF80020D1F88024D4
:103F4000C1F8802403929A690292DA6801920022F1
:103F5000C3E906226846D3E9001290473748D0F8F3
:103F60001C315BB1364A5169136A99424ED992F8B5
:103F70002830002B4AD11146FFF756FF2F48D0F8C2
:103F80004431002B57D04FF4A271FFF745FF2C4B63
:103F900093F829200AB1012202609A69002A4AD0C6
:103FA000586AD96800229A6105B0BDE83040FFF731
:103FB00097BFD5F804335B07D0D5D5F80831002B6F
:103FC000CCD01F4C1D482146FFF774FF636AA269DD
:103FD0009A42C3D1E36953B1A3612369E168E36005
:103FE0000023606AE3616362FFF77AFFB6E794F843
:103FF00029300BB901236B60104B4FF40172C3F8E9
:1040000008230023606AE168A361EDE70B484FF4E1
:104010008E71FFF701FF5369002BAFD051690291F8
:10402000002391688DF80030019153616846D2E910
:1040300000139847A2E705B030BD00BF0020004044
:104040001C1000202DE9F743054691460C4619B98E
:104050006B49AA20FDF780F995F80480694E2C235E
:1040600003FB086393F82A30002B40F0C4806649B4
:104070002868FEF72DFF0746002840F0BE80236821
:104080005A1C13D001A80193FFF7EEFE019A0123F9
:104090009340C0F808352368019301A8FFF7E4FEB8
:1040A000019B03F5E073032240F823206368581C4A
:1040B00009D001A80193FFF7D7FE019B03F5E07338
:1040C000002240F823202B68A269C3F82425217D13
:1040D000637D2A680B43C2F86C35D4E900122B6863
:1040E000C3F81425C3F80C15237D012B2AD1A3682E
:1040F000591C09D001A80193FFF7B6FE019B03F5F7
:10410000E073002240F82320E3685A1C13D001A872
:104110000193FFF7A9FE019A01239340C0F80835E7
:10412000E368019301A8FFF79FFE019B03F5E0738D
:10413000032240F82320D4E902122B68C3F8082593
:10414000C3F810152C2303FB08F3F218C2F80490EF
:104150002269F250B9F1000F39D0286894F81C9008
:104160002A4A4FF48E71FFF757FE28684FF4A27168
:10417000FFF752FE2B68C3F804232C68B9F1070F30
:1041800044F3073403D922496B20FDF7E5F8002CEE
:10419000B6BF204B04F1604404F00F044FEA491904
:1041A0005FFA89F9AABF04F5614403F8049084F822
:1041B00000932B6843F30733002B08DB01225909D6
:1041C00003F01F0302FA03F3134A42F821302B686D
:1041D0000422C3F800252C2303FB08660023C6E94C
:1041E000063386F829307361012386F82A30384671
:1041F00003B0BDE8F0830827F9E71127F7E700BF10
:104200009EC600001C100020013F0000800002003C
:10421000A8C5000014ED00E000E100E02DE9F8433E
:10422000036806792A4D0022C3F800252C2303FBDE
:10423000065304465B68B3B10368264AC3F80823F3
:10424000036843F30733002B0DDB5A09012103F008
:104250001F03994002F120031F4A42F82310BFF3C5
:104260004F8FBFF36F8F23684FF0FF32D3F80C05E9
:10427000D3F81495D3F80875D3F81085C3F814252E
:10428000C3F80C2523689042C3F80825C3F810250D
:1042900001D0FFF701FEB9F1FF3F02D04846FFF71A
:1042A000FBFDB8F1FF3F02D04046FFF7F5FD7B1C58
:1042B00002D03846FFF7F0FD2068FEF72BFE2C23D6
:1042C00003FB0655002385F82A306B60BDE8F883B0
:1042D0001C1000208402020000E100E00279044B7F
:1042E0002C2101FB02335869003818BF01207047A8
:1042F0001C1000202DE9F84FDFF8D48007792C231B
:1043000003FB0783064693F82A30012B8946924621
:1043100004D02E494FF48C70FDF71EF8B9F1000F50
:1043200004D12A4940F21910FDF716F8BAF1000F2E
:1043300004D126494FF48D70FDF70EF83046FFF793
:10434000CDFF044600283CD12C2507FB058B4FF4FC
:104350008E71CBF814A0CBF80890CBF820008BF826
:1043600028003068FFF758FD336801229A603068F2
:104370005946FFF759FDDBF804305D461BBB30683A
:10438000DBF814402B6A9C4211D83368D3F81C2107
:10439000002AFBD00122DA6000202C2303FB0783D4
:1043A00000225A61BDE8F88F95F828303BB9D0F863
:1043B0001C31002BF8D05946FFF736FDE2E70F20FD
:1043C000EBE71120EEE72046ECE700BF9EC60000B9
:1043D0001C1000202DE9F843464C06792C2303FBE2
:1043E0000643054693F82A30012B8846174604D029
:1043F00041494FF4B670FCF7AFFFB8F1000F04D19C
:104400003D4940F26D10FCF7A7FF27B93A494FF438
:10441000B770FCF7A1FF2C2303FB0643596821B1B9
:104420002B684FF40172C3F808232C2303FB0643C7
:104430009A6952B1DA69002A3FD021B12B684FF452
:104440000172C3F80423112035E09F61C3F80C808A
:104450005A6217462C2303FB0643DF6193F8293089
:104460001BB912B92846FFF7EEFC2C2707FB0648BC
:104470002868D8F80430A3BB4FF4A2714746FFF771
:10448000CBFC2868D0F82421D0F80811D0F84431AA
:10449000194316D1002AF4D000232C2101FB064435
:1044A0000021A16112BB1BBB94F829102B680122CB
:1044B000A9B11A600020BDE8F883C3F8108001227A
:1044C000C8E753EA0209E8D13946FFF7F3FCD8F808
:1044D0002430D8F818209A42D3D84A46DCE75A60EC
:1044E000E8E74FF40173C0F80433E3E70320E2E7A1
:1044F0000F20E0E71C1000209EC600000023435060
:1045000082B043580193019B02B0704710B5036815
:10451000292B044604D9074940F2CD10FCF71CFFB3
:1045200023681F2B83BF03F01F03236002484FF053
:10453000A04010BD12B600000003005007B5019066
:1045400001A8FFF7E3FF019B03F5E073022240F8A7
:10455000232003B05DF804FB1FB501238DF8003064
:10456000044BCDE90110D3E900126846904705B02D
:104570005DF804FB481000207FB5434AD2F824615F
:10458000002E60D010464FF49271FFF7B7FF022360
:104590008DF80030D2F88034C2F880340393D2F81A
:1045A0003C350293394BDA6801920022C3E90622B6
:1045B0006846D3E9001290473348D0F8443173B1CC
:1045C0004FF4A271FFF79AFF304B9A693AB100227B
:1045D000C3E90622D968D0F83C05FFF7BDFF2A4899
:1045E000D0F82031ABB14FF49071FFF787FF012372
:1045F000C360264B5A6962B1D0F84C150291002273
:1046000099688DF8002001915A616846D3E900123B
:1046100090471D48D0F858319BB14FF4AC71FFF76B
:104620006DFF1A4B5A6962B1D0F84C150291002205
:1046300099688DF8002001915A616846D3E900120B
:10464000904704B070BDD2F81031002BB4D04FF4B5
:1046500088711046FFF752FF0C4BD2F83C05996960
:104660008842A9D1DC69D96864B1D2F8005225F03A
:104670002005C2F800521A699C61DA60DE61FFF71A
:104680006BFF99E79C61FAE700200040481000208A
:104690002DE9F743054691460C4619B97149CF20DB
:1046A000FCF75AFE95F804806F4E242303FB086341
:1046B00093F82030002B40F0D1806C492868FEF739
:1046C00007FC0746002840F0CB8023685A1C13D013
:1046D00001A80193FFF71AFF019A01239340C0F844
:1046E00008352368019301A8FFF710FF019B03F52C
:1046F000E073032240F823206368581C09D001A806
:104700000193FFF703FF019B03F5E073002240F8DC
:1047100023202B68A269C3F82425217D637D2A68A4
:104720000B43C2F86C35D4E900122B68C3F80C15A2
:10473000C3F81425237D012B2AD1A368591C09D065
:1047400001A80193FFF7E2FE019B03F5E07300224D
:1047500040F82320E3685A1C13D001A80193FFF707
:10476000D5FE019A01239340C0F80835E368019310
:1047700001A8FFF7CBFE019B03F5E073032240F88D
:104780002320D4E902212B68C3F80815C3F81025AB
:10479000242303FB08F3F218C2F804902269F250B4
:1047A000B9F1000F48D0286894F81C90304A4FF4B3
:1047B0008871FFF7A3FE28684FF49071FFF79EFE03
:1047C00028684FF49271FFF799FE28684FF4A271A0
:1047D000FFF794FE28684FF4AC71FFF78FFE2B684B
:1047E000C3F804232C68B9F1070F44F3073403D945
:1047F00020496B20FCF7B0FD002CB6BF1E4B04F126
:10480000604404F00F044FEA49195FFA89F9AABF1E
:1048100004F5614403F8049084F800932B6843F393
:104820000733002B08DB0122590903F01F0302FAAA
:1048300003F3124A42F821302B680822C3F80025FE
:10484000242303FB08660023C6E9063373610123B2
:1048500086F82030384603B0BDE8F0830827F9E732
:104860001127F7E7EFC60000481000207945000047
:1048700010034200A8C5000014ED00E000E100E0D4
:104880002DE9F843364D06790268242303FB0653CD
:1048900004465B68ABB1334BC2F80833036843F39B
:1048A0000733002B0DDB5A09012103F01F03994048
:1048B00002F120032C4A42F82310BFF34F8FBFF3BD
:1048C0006F8F2268D2F8003223F02003C2F8003242
:1048D000236801225A6020684FF4AC71FFF70EFE86
:1048E0002368DA602368D3F85821002AFBD000221D
:1048F000C3F8002523684FF0FF32D3F80C05D3F836
:104900001495D3F80875D3F81085C3F80C25C3F8AF
:10491000142523689042C3F80825C3F8102501D058
:10492000FFF70CFEB9F1FF3F02D04846FFF706FE45
:10493000B8F1FF3F02D04046FFF700FE7B1C02D0DB
:104940003846FFF7FBFD2068FEF7E4FA242303FB5B
:104950000655002385F820306B60BDE8F88300BF62
:10496000481000201003420000E100E00279044BEF
:10497000242101FB02335869003818BF0120704719
:10498000481000202DE9F047384F90F804A0242368
:1049900003FB0A73054693F82030012B88469146A5
:1049A00004D0334940F22D10FCF7D6FCB8F1000FCB
:1049B00004D12F494FF49770FCF7CEFCB9F1000FEA
:1049C00004D12B4940F22F10FCF7C6FC2B7913B908
:1049D000B9F5803F04D326494FF49870FCF7BCFC2E
:1049E00008F06043B3F1005F3AD12846FFF7BEFFFD
:1049F0000446002836D1242606FB0A764FF490712F
:104A0000C6F81490C6F808802868FFF777FD4FF4C1
:104A1000AC712868FFF772FD2B687269B168C3F842
:104A20004415C3F848252B6801229A607368DBB9E6
:104A30002B68D3F82021D3F858010243F9D068B984
:104A40000122DA602A68D2F85831002BFBD02423E7
:104A500003FB0A7700237B61BDE8F0870F20F6E7B0
:104A60001020F9E71120F7E72046F5E7481000206D
:104A7000EFC600002DE9F8434B4D90F80480242345
:104A800003FB0853044693F82030012B0F461646CB
:104A900004D046494FF4C070FCF75EFC27B9434987
:104AA00040F28110FCF758FC26B940494FF4C17020
:104AB000FCF752FC237913B9B6F5803F04D33B4988
:104AC00040F28310FCF748FC07F06043B3F1005F4D
:104AD00067D1242303FB0853596821B123684FF49D
:104AE0000472C3F80823242303FB08539A695AB1BC
:104AF000DA69002A43D021B123684FF40472C3F865
:104B000004231120BDE8F8839E61DF6091462423D1
:104B100003FB08584FF48871C8F81C202068FFF781
:104B2000EDFC20684FF4A271FFF7E8FC2368C3F89E
:104B30003475C3F838652368B9F1000F24D1012218
:104B40001A6026792368242202FB0652526812BB9F
:104B5000D3F81011D3F84421D3F82401114302D122
:104B60000028F5D00A46242303FB0655002398426B
:104B700018BF03209A42AB6118BF0F20C2E71F6124
:104B800032464FF00109C2E7D3F8002242F020027A
:104B9000C3F80022D5E74FF40472C3F804230020C1
:104BA000B0E71020AEE700BF48100020EFC60000BD
:104BB000BFF34F8F0549064BCA6802F4E062134306
:104BC000CB60BFF34F8F00BFFDE700BF00ED00E0FB
:104BD0000400FA054FF08053D3F830210D2A03BFAB
:104BE000D3F83401B0FA80F040090020704700008B
:104BF00008B5FFF7EFFF40B14FF080430022C3F844
:104C00000C21C3F81021C3F83825FFF7E3FF002873
:104C100046D04FF08052584BD2F80414C3F82015F8
:104C2000D2F80814C3F82415D2F80C14C3F82815C8
:104C3000D2F81014C3F82C15D2F81414C3F8301598
:104C4000D2F81814C3F83415D2F81C14C3F8401560
:104C5000D2F82014C3F84415D2F82414C3F8481528
:104C6000D2F82814C3F84C15D2F82C14C3F85015F8
:104C7000D2F83014C3F85415D2F83414C3F86015C0
:104C8000D2F83814C3F86415D2F83C14C3F8681588
:104C9000D2F84014C3F86C15D2F84424C3F8702538
:104CA000FFF798FF48B14FF08043D3F80024D107B5
:104CB00044BF6FF00102C3F80024304AD2F88830B4
:104CC00043F47003C2F88830BFF34F8FBFF36F8F88
:104CD0004FF01023D3F80C22D2071DD5284B012208
:104CE000C3F80425D3F80024002AFBD04FF010228B
:104CF000D2F80C3223F00103C2F80C32204BD3F867
:104D00000024002AFBD00022C3F80425D3F8002495
:104D1000002AFBD0FFF74CFFD3F80022002A03DB68
:104D2000D3F80432002B22DA154B0122C3F80425F4
:104D3000D3F80024002AFBD04FF010221221C2F831
:104D40000012D3F80024002AFBD04FF010231222C7
:104D5000C3F804220A4BD3F80024002AFBD0002217
:104D6000C3F80425D3F80024002AFBD0D2E7054B72
:104D7000054A1A6008BD00BF00C0004000ED00E019
:104D800000E00140300000200090D0030649074AAF
:104D9000074B9B1A03DD043BC858D050FBDCFFF7E0
:104DA00027FFFBF775FA00008CD000000000002000
:104DB000FC060020FEE7FEE7FEE7FEE7FEE7FEE773
:104DC000FEE7FEE7FEE7FEE700000000000000004F
:104DD00000000000000000000000000000000000D3
:104DE00000000000000000000000000000000000C3
:104DF00000000000000000000000000000000000B3
:104E000030B490F800F020F007016FF0000C10F0C3
:104E1000070491F820F040F048804FF000046FF054
:104E20000700D1E9002391F840F000F1080082FA70
:104E30004CF2A4FA8CF283FA4CF3A2FA8CF34BBB3B
:104E4000D1E9022382FA4CF200F10800A4FA8CF2B4
:104E500083FA4CF3A2FA8CF3E3B9D1E9042382FA82
:104E60004CF200F10800A4FA8CF283FA4CF3A2FA97
:104E70008CF37BB9D1E9062301F1200182FA4CF2CF
:104E800000F10800A4FA8CF283FA4CF3A2FA8CF336
:104E9000002BC6D0002A04BF04301A4612BAB2FA58
:104EA00082F200EBD20030BC7047D1E9002304F05D
:104EB0000305C4F100004FEAC50514F0040F91F892
:104EC00040F00CFA05F562EA05021CBF63EA05032F
:104ED00062464FF00004AAE7830730B547D0541E5E
:104EE000002A3ED0CAB2034601E0013C39D303F8A0
:104EF000012B9D07F9D1032C2CD9CDB205EB05254B
:104F00000F2C05EB054535D9A4F1100222F00F0C4A
:104F100003F1100EE6444FEA121C1A46C2E900558E
:104F2000C2E9025510327245F8D10CF1010214F0B9
:104F30000C0F03EB021204F00F0C13D0ACF10403BE
:104F400023F003030433134442F8045B9342FBD180
:104F50000CF003042CB1C9B21C4403F8011BA3429A
:104F6000FBD130BD64461346002CF4D1F9E703466B
:104F70001446C0E71A46A446E0E700BFB1FA81F242
:104F800052094FF48063520001F0F0BD032A30B49F
:104F900015D941EA0004A40784460B4604D0541EE8
:104FA0000FE0043A032A08D91946604653F8044B27
:104FB0005CF8045BA542F4D0F1E760461946541E44
:104FC0007AB1431E0139021901E09A4209D013F85F
:104FD000010F11F801CF6045F7D0A0EB0C0030BCF9
:104FE0007047002030BC7047844641EA000313F04C
:104FF00003036DD1403A41D351F8043B40F8043BE0
:1050000051F8043B40F8043B51F8043B40F8043BA2
:1050100051F8043B40F8043B51F8043B40F8043B92
:1050200051F8043B40F8043B51F8043B40F8043B82
:1050300051F8043B40F8043B51F8043B40F8043B72
:1050400051F8043B40F8043B51F8043B40F8043B62
:1050500051F8043B40F8043B51F8043B40F8043B52
:1050600051F8043B40F8043B51F8043B40F8043B42
:1050700051F8043B40F8043B403ABDD2303211D3E2
:1050800051F8043B40F8043B51F8043B40F8043B22
:1050900051F8043B40F8043B51F8043B40F8043B12
:1050A000103AEDD20C3205D351F8043B40F8043BE2
:1050B000043AF9D2043208D0D2071CBF11F8013BE0
:1050C00000F8013B01D30B8803806046704700BFA6
:1050D000082A13D38B078DD010F003038AD0C3F1B5
:1050E0000403D21ADB071CBF11F8013B00F8013B97
:1050F00080D331F8023B20F8023B7BE7043AD9D356
:10510000013A11F8013B00F8013BF9D20B7803702A
:105110004B7843708B7883706046704770B50F4B47
:105120000F4DAB42A3EB050607D0B610002455F88F
:10513000043B01349847A642F9D806F025FA094DF8
:10514000094B5E1BAB424FEAA60606D0002455F879
:10515000043B01349847A642F9D870BDEC06002004
:10516000EC060020EC060020F80600200020704726
:10517000024A0349034800F057B900BF600100200C
:105180004D850000400000200C4B4168994210B54D
:10519000044601D003F0DAF9A168094B994202D024
:1051A000204603F0D3F9E168064B994204D020462B
:1051B000BDE8104003F0CAB910BD00BF6C1000205C
:1051C000D41000203C110020002070472DE9F84346
:1051D0002A4C2B49DFF8BC90DFF8BC80294FC4F87B
:1051E0003811002504230822294604F15C00264ECC
:1051F000E360C4E90055C4E90455A5606566A5618E
:10520000FFF76AFE214B63670822294604F1C400B8
:10521000C4E90749C4E90987C4E91A55C4E91E5518
:105220002567C4F8CC50C4F88050E662FFF754FEFE
:10523000174BC4F8DC30294604F16803082204F552
:105240009670C4F88430C4E92298C4E92476C4E98D
:105250003455C4E93855C4F8D850C4F83451C4F8AA
:10526000E850FFF739FE04F1D003C4E93C98C4E9E3
:105270003E76C4F8EC30BDE8F88300BF6C10002027
:105280007151000045870000698700000900010096
:1052900012000200DD86000005870000F8B5254BEE
:1052A000D3F838310646002B3CD0234FD7E90134E0
:1052B000013B04D51DE05A1C04F1680419D0B4F96F
:1052C0000C50013B002DF6D11C4BE360C4E90155A5
:1052D000C4E9045565662560A5610822294604F1E4
:1052E0005C00FFF7F9FDC4E90C55C4E911552046EF
:1052F000F8BD3D680DB12F46D8E74FF4D671304662
:1053000001F0E6FC044680B10423C0E900530C30F0
:105310002946A0604FF4D0722546FFF7DDFD3C60C2
:105320002F46C3E7FFF752FFBFE70C233860336017
:10533000DDE700BF6C100020600100200100FFFFCE
:10534000436B03B17047044B044AD3F838314263CE
:10535000002BF7D13AE700BF6C1000208951000004
:10536000704700BF704700BF024A0349002000F0A9
:105370005BB800BF600100206D510000024A034984
:10538000002000F051B800BF60010020C9510000AA
:1053900008B50021044603F021F9034B1B6803B153
:1053A0009847204605F05AFCA4110020002301462E
:1053B0001A46184603F0DCB90EB400B582B003AB50
:1053C000816853F8042B019300F052F802B05DF8A5
:1053D00004EB03B0704700BF0FB400B5074983B0BA
:1053E00004AB086853F8042B8168019300F040F87F
:1053F00003B05DF804EB04B0704700BF3800002034
:1054000038B5074D074C2C1BA41005D0013C55F8AE
:10541000043D9847002CF9D1BDE8384006F0BAB8F1
:10542000FC060020F80600202DE9F84307468846D0
:1054300016464FF00009D6E90154013D10D4A38966
:10544000012B08D9B4F90E3001332146384602D079
:10545000C04749EA0009013D6B1C04F16804EED124
:105460003668002EE7D14846BDE8F883000000000A
:105470002DE9F04FBFB01C460491914609930546B3
:10548000089003F079FF036810931846FFF7B8FC03
:105490000F901DB16B6B002B01F020800499B1F9C6
:1054A0000C204B6E900405D442F4005223F40053B8
:1054B0008A814B669F0401F13E81049AB2F90C3057
:1054C0001E0740F1DD801269002A00F0D98003F048
:1054D0001A030A2B00F0E3809FED817B0023CDE9C6
:1054E0002233CDE911338DED0C7B2EAA0E93219240
:1054F00092460693CB469BF80030002B00F0648167
:105500005C4604E014F8013F002B00F04181252B9C
:10551000F8D1B4EB0B0540F03E812378002B00F06E
:1055200053814FF000038DF86730002763780597AB
:1055300004F1010B4FF0FF390BF1010B9846A8F174
:105540002003582B00F24D81DFE813F083024B015A
:105550004B017E024B014B014B014B014B014B01B7
:10556000460278024B01510256024B017302590068
:105570005900590059005900590059005900590063
:105580004B014B014B014B014B014B014B014B01BB
:105590004B014B016800C6014B01C6014B014B0199
:1055A0004B014B01AE024B014B01B8004B014B01CB
:1055B0004B014B014B01CE004B014B0152064B01FD
:1055C0004B014B014B014B014B014B014B014B017B
:1055D0004B01A0026A00C601C601C6019B026A0017
:1055E0004B014B018E024B01EA02BA00D902D402F0
:1055F0004B01B3024B01D0004B014B017206A8F1E5
:10560000300300221BF8018B02EB820203EB420203
:10561000A8F13003092BF5D9059290E747F0100760
:10562000BD0640F1B281099B073323F007031A46F8
:10563000596852F8083B09920A460029C0F2B7811E
:10564000B9F1000F9DF86740C0F2B88127F08001E2
:10565000029153EA020140F0B0810121B9F1000F3B
:1056600040F05383002940F0F18417F001030793C1
:1056700000F0318530238DF8B7300DF1B70573E0B8
:10568000049D0898294602F0A7FD002841F05380A8
:10569000B5F90C3003F01A030A2B7FF41DAF049BFD
:1056A000B3F90E30002BFFF617AF04990898234684
:1056B0004A463FB0BDE8F04F01F0FAB847F0100796
:1056C00017F0200200F05281099B073323F00703F3
:1056D00019465A6851F8083B0991002114E000BFAF
:1056E000000000000000000047F0100717F0200243
:1056F00000F03281099B073323F0070319465A68EB
:1057000051F8083B099101210024B9F1000F8DF8EF
:10571000674006DB27F08000029053EA02009DD02C
:10572000029F012900F04A81022900F0F8822EAD83
:1057300003F00701DB0843EA4273D208303153EA31
:105740000206284605F8011DF2D1FB0740F1F5825B
:10575000302900F0F2823023023805F8013C2EABEC
:105760001B1A029707930546079B4B45B8BF4B464C
:10577000039300230B9314B1039B01330393029B08
:1057800013F002033FD0039B0233039302233AE05A
:10579000B4EB0B0518D0239B2B442393229B01339E
:1057A000072BCAE900B5229305DC0AF1080A069B1B
:1057B0002B440693B1E60499089821AA03F048F80F
:1057C00030B90DF1B80AF2E7239B002B40F00487B3
:1057D000049B9B895B0600F1AE8706983FB0BDE84D
:1057E000F08FB8F1000FEFD000238DF86730012360
:1057F0008DF890800393079324AD4FF00009029732
:10580000CDF82C904B46029A239C12F084020A9207
:1058100005D1059A0399561A002E00F3FE829DF8D1
:1058200067208AB1229A0DF1670101320134CAF86A
:105830000010072A4FF0010123942292CAF80410A5
:1058400000F326830AF1080A83B1229A1AA90132C9
:105850000234CAF80010072A4FF002012394229262
:10586000CAF8041000F322830AF1080A0A9B802B6D
:1058700000F0CA81079BA9EB0306002E00F3068205
:10588000029BDE0500F15981079BCAF804301C44D5
:10589000229BCAF800500133072B2394229300F374
:1058A00065820AF1080A029B5A0705D5059B039AEF
:1058B0009D1A002D00F30683DDE9052303998A4232
:1058C000ACBF9B185B180693002C40F03B82002372
:1058D00022930DF1B80A0EE6099B073323F0070364
:1058E000B3EC027B55EC174B099325F0004315935D
:1058F0008DED147ADDE91401BD4B4FF0FF328DEDD3
:105900000C7B05F003FE002840F0F083DDE9140174
:10591000B74B4FF0FF3205F0DBFD002840F0E68387
:10592000002200232046294605F0C8FD002840F04B
:105930003D869DF86740AF4D27F080030293AE4B44
:10594000B8F1470FD8BF1D464FF00009032303935A
:105950000793CDF82C900EE7099951F8043B099173
:1059600017F0100100F0BA830121CDE6099951F832
:10597000043B099117F010017FF4AFAE17F040021D
:105980003FF4ABAE0A469BB2A7E6099AFC0652F872
:10599000043B099206D4780604D543F3C03211467D
:1059A0001BB24AE6DA1711460029BFF649AE5B4240
:1059B00062EB42022D240121A7E6029F0A2B72F11D
:1059C000000180F0018530338DF8B7300123029754
:1059D00007930DF1B705C7E6099B53F8042B059211
:1059E000002A80F27383059A0993524205929BF82C
:1059F000003047F004079FE55A4612F8018BB8F1D2
:105A00002A0F00F02287A8F13003092B98BF4FF02E
:105A1000000900F2A18612F8018B09EB890903EB5A
:105A20004909A8F13003092BF5D949EAE9799346E8
:105A300085E59BF8003047F080077DE52B238DF846
:105A400067309BF8003077E59BF8003047F001079E
:105A500072E59DF867209BF80030002A7FF46CAD5A
:105A600020228DF8672067E59BF800306C2B03BF80
:105A70009BF8013047F020070BF1010B47F01007AE
:105A80005AE59BF8003047F0400755E5099B002296
:105A90008DF8672053F8042B099301238DF890208B
:105AA0000393079324ADA8E69BF8003047F008075E
:105AB00042E5099C54F8045B00268DF86760002DD0
:105AC00000F0C583B9F1000FC0F21A854A4631468D
:105AD000284600F025FF002800F03286431B07937C
